{"contracts/PrescriptionRegistry.sol":{"PrescriptionRegistry":{"abi":[{"inputs":[],"stateMutability":"nonpayable","type":"constructor"},{"anonymous":false,"inputs":[{"indexed":false,"internalType":"address","name":"doctor","type":"address"}],"name":"DoctorAuthorized","type":"event"},{"anonymous":false,"inputs":[{"indexed":false,"internalType":"address","name":"pharmacy","type":"address"}],"name":"PharmacyAuthorized","type":"event"},{"anonymous":false,"inputs":[{"indexed":false,"internalType":"uint256","name":"id","type":"uint256"},{"indexed":false,"internalType":"address","name":"pharmacy","type":"address"}],"name":"PrescriptionDispensed","type":"event"},{"anonymous":false,"inputs":[{"indexed":false,"internalType":"uint256","name":"id","type":"uint256"},{"indexed":false,"internalType":"address","name":"doctor","type":"address"}],"name":"PrescriptionIssued","type":"event"},{"inputs":[],"name":"admin","outputs":[{"internalType":"address","name":"","type":"address"}],"stateMutability":"view","type":"function"},{"inputs":[{"internalType":"address","name":"_doctor","type":"address"}],"name":"authorizeDoctor","outputs":[],"stateMutability":"nonpayable","type":"function"},{"inputs":[{"internalType":"address","name":"_pharmacy","type":"address"}],"name":"authorizePharmacy","outputs":[],"stateMutability":"nonpayable","type":"function"},{"inputs":[{"internalType":"address","name":"","type":"address"}],"name":"authorizedDoctors","outputs":[{"internalType":"bool","name":"","type":"bool"}],"stateMutability":"view","type":"function"},{"inputs":[{"internalType":"address","name":"","type":"address"}],"name":"authorizedPharmacies","outputs":[{"internalType":"bool","name":"","type":"bool"}],"stateMutability":"view","type":"function"},{"inputs":[{"internalType":"uint256","name":"_id","type":"uint256"}],"name":"dispensePrescription","outputs":[],"stateMutability":"nonpayable","type":"function"},{"inputs":[{"internalType":"uint256","name":"_id","type":"uint256"}],"name":"getPrescriptionBasicInfo","outputs":[{"internalType":"uint256","name":"id","type":"uint256"},{"internalType":"address","name":"doctor","type":"address"},{"internalType":"string","name":"consultationDate","type":"string"},{"internalType":"string","name":"expiryDate","type":"string"},{"internalType":"bool","name":"valid","type":"bool"},{"internalType":"bool","name":"dispensed","type":"bool"},{"internalType":"address","name":"dispensedBy","type":"address"},{"internalType":"uint256","name":"dispensedAt","type":"uint256"}],"stateMutability":"view","type":"function"},{"inputs":[{"internalType":"uint256","name":"_id","type":"uint256"}],"name":"getPrescriptionDetails","outputs":[{"internalType":"uint256","name":"id","type":"uint256"},{"internalType":"address","name":"doctor","type":"address"},{"internalType":"string[]","name":"medicines","type":"string[]"},{"internalType":"string[]","name":"dosages","type":"string[]"},{"internalType":"string","name":"consultationDate","type":"string"},{"internalType":"string","name":"expiryDate","type":"string"},{"internalType":"bool","name":"valid","type":"bool"},{"internalType":"bool","name":"dispensed","type":"bool"},{"internalType":"address","name":"dispensedBy","type":"address"},{"internalType":"uint256","name":"dispensedAt","type":"uint256"}],"stateMutability":"view","type":"function"},{"inputs":[{"internalType":"uint256","name":"_id","type":"uint256"}],"name":"getPrescriptionDosages","outputs":[{"internalType":"string[]","name":"","type":"string[]"}],"stateMutability":"view","type":"function"},{"inputs":[{"internalType":"uint256","name":"_id","type":"uint256"}],"name":"getPrescriptionMedicines","outputs":[{"internalType":"string[]","name":"","type":"string[]"}],"stateMutability":"view","type":"function"},{"inputs":[{"internalType":"string[]","name":"_medicines","type":"string[]"},{"internalType":"string[]","name":"_dosages","type":"string[]"},{"internalType":"string","name":"_consultationDate","type":"string"},{"internalType":"string","name":"_expiryDate","type":"string"}],"name":"issuePrescription","outputs":[{"internalType":"uint256","name":"","type":"uint256"}],"stateMutability":"nonpayable","type":"function"},{"inputs":[],"name":"prescriptionCount","outputs":[{"internalType":"uint256","name":"","type":"uint256"}],"stateMutability":"view","type":"function"},{"inputs":[{"internalType":"uint256","name":"","type":"uint256"}],"name":"prescriptions","outputs":[{"internalType":"uint256","name":"id","type":"uint256"},{"internalType":"address","name":"doctor","type":"address"},{"internalType":"string","name":"consultationDate","type":"string"},{"internalType":"string","name":"expiryDate","type":"string"},{"internalType":"bool","name":"valid","type":"bool"},{"internalType":"bool","name":"dispensed","type":"bool"},{"internalType":"address","name":"dispensedBy","type":"address"},{"internalType":"uint256","name":"dispensedAt","type":"uint256"}],"stateMutability":"view","type":"function"},{"inputs":[{"internalType":"uint256","name":"_id","type":"uint256"}],"name":"verifyPrescription","outputs":[{"internalType":"bool","name":"","type":"bool"},{"internalType":"bool","name":"","type":"bool"},{"components":[{"internalType":"uint256","name":"id","type":"uint256"},{"internalType":"address","name":"doctor","type":"address"},{"internalType":"string[]","name":"medicines","type":"string[]"},{"internalType":"string[]","name":"dosages","type":"string[]"},{"internalType":"string","name":"consultationDate","type":"string"},{"internalType":"string","name":"expiryDate","type":"string"},{"internalType":"bool","name":"valid","type":"bool"},{"internalType":"bool","name":"dispensed","type":"bool"},{"internalType":"address","name":"dispensedBy","type":"address"},{"internalType":"uint256","name":"dispensedAt","type":"uint256"}],"internalType":"struct PrescriptionRegistry.Prescription","name":"","type":"tuple"}],"stateMutability":"view","type":"function"}],"evm":{"bytecode":{"linkReferences":{},"object":"6080604052348015600f57600080fd5b50600480546001600160a01b03191633179055611c6e806100316000396000f3fe608060405234801561001057600080fd5b50600436106100ea5760003560e01c80639d45cae51161008c578063b655849811610066578063b655849814610238578063c824e4c614610241578063f115d95514610254578063f851a4401461026757600080fd5b80639d45cae5146101e4578063a219741b146101f7578063ab0101dd1461021757600080fd5b80633feb9003116100c85780633feb900314610171578063581f87651461018457806358c9202c146101a65780635e189509146101bb57600080fd5b80631f4baa61146100ef5780632d3975f01461012757806331dfc91b1461014a575b600080fd5b6101126100fd36600461152d565b60036020526000908152604090205460ff1681565b60405190151581526020015b60405180910390f35b61011261013536600461152d565b60026020526000908152604090205460ff1681565b61015d61015836600461155d565b610292565b60405161011e9897969594939291906115bc565b61015d61017f36600461155d565b610401565b61019761019236600461155d565b6105cc565b60405161011e93929190611686565b6101b96101b436600461152d565b610956565b005b6101ce6101c936600461155d565b6109da565b60405161011e9a99989796959493929190611785565b6101b96101f236600461152d565b610d4f565b61020a61020536600461155d565b610dcd565b60405161011e919061181f565b61022a610225366004611991565b610ee0565b60405190815260200161011e565b61022a60005481565b61020a61024f36600461155d565b611144565b6101b961026236600461155d565b61124c565b60045461027a906001600160a01b031681565b6040516001600160a01b03909116815260200161011e565b60016020819052600091825260409091208054918101546004820180546001600160a01b0390921692916102c590611a51565b80601f01602080910402602001604051908101604052809291908181526020018280546102f190611a51565b801561033e5780601f106103135761010080835404028352916020019161033e565b820191906000526020600020905b81548152906001019060200180831161032157829003601f168201915b50505050509080600501805461035390611a51565b80601f016020809104026020016040519081016040528092919081815260200182805461037f90611a51565b80156103cc5780601f106103a1576101008083540402835291602001916103cc565b820191906000526020600020905b8154815290600101906020018083116103af57829003601f168201915b505050506006830154600790930154919260ff8082169361010083049091169250620100009091046001600160a01b03169088565b60008060608060008060008060008911801561041f57506000548911155b6104445760405162461bcd60e51b815260040161043b90611a8b565b60405180910390fd5b6000898152600160208190526040909120805491810154600682015460078301546004840180549495946001600160a01b03948516949193600588019360ff8083169461010084049091169362010000909304169186906104a490611a51565b80601f01602080910402602001604051908101604052809291908181526020018280546104d090611a51565b801561051d5780601f106104f25761010080835404028352916020019161051d565b820191906000526020600020905b81548152906001019060200180831161050057829003601f168201915b5050505050955084805461053090611a51565b80601f016020809104026020016040519081016040528092919081815260200182805461055c90611a51565b80156105a95780601f1061057e576101008083540402835291602001916105a9565b820191906000526020600020905b81548152906001019060200180831161058c57829003601f168201915b505050505094509850985098509850985098509850985050919395975091939597565b6000806105d76113ff565b8315806105e5575060005484115b15610600576105f26113ff565b60009350839250905061094f565b600084815260016020818152604080842081516101408101835281548152938101546001600160a01b0316848401526002810180548351818602810186018552818152929493860193879084015b828210156106fa57838290600052602060002001805461066d90611a51565b80601f016020809104026020016040519081016040528092919081815260200182805461069990611a51565b80156106e65780601f106106bb576101008083540402835291602001916106e6565b820191906000526020600020905b8154815290600101906020018083116106c957829003601f168201915b50505050508152602001906001019061064e565b50505050815260200160038201805480602002602001604051908101604052809291908181526020016000905b828210156107d357838290600052602060002001805461074690611a51565b80601f016020809104026020016040519081016040528092919081815260200182805461077290611a51565b80156107bf5780601f10610794576101008083540402835291602001916107bf565b820191906000526020600020905b8154815290600101906020018083116107a257829003601f168201915b505050505081526020019060010190610727565b5050505081526020016004820180546107eb90611a51565b80601f016020809104026020016040519081016040528092919081815260200182805461081790611a51565b80156108645780601f1061083957610100808354040283529160200191610864565b820191906000526020600020905b81548152906001019060200180831161084757829003601f168201915b5050505050815260200160058201805461087d90611a51565b80601f01602080910402602001604051908101604052809291908181526020018280546108a990611a51565b80156108f65780601f106108cb576101008083540402835291602001916108f6565b820191906000526020600020905b8154815290600101906020018083116108d957829003601f168201915b5050509183525050600682015460ff80821615156020840152610100820416151560408301526201000090046001600160a01b0316606082015260079091015460809091015260c081015160e082015190955093509150505b9193909250565b6004546001600160a01b031633146109805760405162461bcd60e51b815260040161043b90611ac2565b6001600160a01b038116600081815260026020908152604091829020805460ff1916600117905590519182527ea8f5cec2bb2e273b1757cce595776dacdc60b8c5245756d69fa2bd0b2833cc91015b60405180910390a150565b60008060608060608060008060008060008b1180156109fb57506000548b11155b610a175760405162461bcd60e51b815260040161043b90611a8b565b60008b81526001602081815260408084208054938101546006820154600783015460028401805486518189028101890190975280875294986001600160a01b0394851697919660038b019660048c019660058d019660ff8082169761010083049091169662010000909204909216949193928b92909184015b82821015610b3c578382906000526020600020018054610aaf90611a51565b80601f0160208091040260200160405190810160405280929190818152602001828054610adb90611a51565b8015610b285780601f10610afd57610100808354040283529160200191610b28565b820191906000526020600020905b815481529060010190602001808311610b0b57829003601f168201915b505050505081526020019060010190610a90565b50505050975086805480602002602001604051908101604052809291908181526020016000905b82821015610c0f578382906000526020600020018054610b8290611a51565b80601f0160208091040260200160405190810160405280929190818152602001828054610bae90611a51565b8015610bfb5780601f10610bd057610100808354040283529160200191610bfb565b820191906000526020600020905b815481529060010190602001808311610bde57829003601f168201915b505050505081526020019060010190610b63565b505050509650858054610c2190611a51565b80601f0160208091040260200160405190810160405280929190818152602001828054610c4d90611a51565b8015610c9a5780601f10610c6f57610100808354040283529160200191610c9a565b820191906000526020600020905b815481529060010190602001808311610c7d57829003601f168201915b50505050509550848054610cad90611a51565b80601f0160208091040260200160405190810160405280929190818152602001828054610cd990611a51565b8015610d265780601f10610cfb57610100808354040283529160200191610d26565b820191906000526020600020905b815481529060010190602001808311610d0957829003601f168201915b505050505094509a509a509a509a509a509a509a509a509a509a50509193959799509193959799565b6004546001600160a01b03163314610d795760405162461bcd60e51b815260040161043b90611ac2565b6001600160a01b038116600081815260036020908152604091829020805460ff1916600117905590519182527fe92112c045a39aca7cd24e843e336f05c4282fcce0b95a92607b48ca2562c27f91016109cf565b6060600082118015610de157506000548211155b610dfd5760405162461bcd60e51b815260040161043b90611a8b565b600082815260016020908152604080832060020180548251818502810185019093528083529193909284015b82821015610ed5578382906000526020600020018054610e4890611a51565b80601f0160208091040260200160405190810160405280929190818152602001828054610e7490611a51565b8015610ec15780601f10610e9657610100808354040283529160200191610ec1565b820191906000526020600020905b815481529060010190602001808311610ea457829003601f168201915b505050505081526020019060010190610e29565b505050509050919050565b3360009081526002602052604081205460ff16610f3f5760405162461bcd60e51b815260206004820152601860248201527f4e6f7420616e20617574686f72697a656420646f63746f720000000000000000604482015260640161043b565b8351855114610f9e5760405162461bcd60e51b815260206004820152602560248201527f4d65646963696e657320616e6420646f7361676573206c656e677468206d69736044820152640dac2e8c6d60db1b606482015260840161043b565b600080549080610fad83611b03565b90915550506040805161014081018252600080548083523360208085019182528486018b8152606086018b9052608086018a905260a08601899052600160c0870181905260e08701869052610100870186905261012087018690529385528382529590932084518155905191810180546001600160a01b0319166001600160a01b0390931692909217909155925180519293926110509260028501920190611468565b506060820151805161106c916003840191602090910190611468565b50608082015160048201906110819082611b79565b5060a082015160058201906110969082611b79565b5060c082015160068201805460e08501516101008087015161ffff1990931694151561ff001916949094179015159093029290921762010000600160b01b031916620100006001600160a01b039093169290920291909117905561012090910151600790910155600054604080519182523360208301527fcf449e5e117e98daf8940ca4eaefbd9df0d1891b867767f86a57dbfb0fbdc846910160405180910390a150600054949350505050565b606060008211801561115857506000548211155b6111745760405162461bcd60e51b815260040161043b90611a8b565b600082815260016020908152604080832060030180548251818502810185019093528083529193909284015b82821015610ed55783829060005260206000200180546111bf90611a51565b80601f01602080910402602001604051908101604052809291908181526020018280546111eb90611a51565b80156112385780601f1061120d57610100808354040283529160200191611238565b820191906000526020600020905b81548152906001019060200180831161121b57829003601f168201915b5050505050815260200190600101906111a0565b3360009081526003602052604090205460ff166112ab5760405162461bcd60e51b815260206004820152601a60248201527f4e6f7420616e20617574686f72697a656420706861726d616379000000000000604482015260640161043b565b6000811180156112bd57506000548111155b6112d95760405162461bcd60e51b815260040161043b90611a8b565b60008181526001602052604090206006015460ff166113315760405162461bcd60e51b815260206004820152601460248201527324b73b30b634b210383932b9b1b934b83a34b7b760611b604482015260640161043b565b600081815260016020526040902060060154610100900460ff161561138c5760405162461bcd60e51b8152602060048201526011602482015270105b1c9958591e48191a5cdc195b9cd959607a1b604482015260640161043b565b6000818152600160209081526040918290206006810180546201000033908102610100600160b01b03199092169190911761010017909155426007909201919091558251848152918201527fcd763f1ff84f6f64899ca9dbfadb7ba5931c5f12587675542b3b5a036600758a91016109cf565b6040518061014001604052806000815260200160006001600160a01b031681526020016060815260200160608152602001606081526020016060815260200160001515815260200160001515815260200160006001600160a01b03168152602001600081525090565b8280548282559060005260206000209081019282156114ae579160200282015b828111156114ae578251829061149e9082611b79565b5091602001919060010190611488565b506114ba9291506114be565b5090565b808211156114ba5760006114d282826114db565b506001016114be565b5080546114e790611a51565b6000825580601f106114f7575050565b601f0160209004906000526020600020908101906115159190611518565b50565b5b808211156114ba5760008155600101611519565b60006020828403121561153f57600080fd5b81356001600160a01b038116811461155657600080fd5b9392505050565b60006020828403121561156f57600080fd5b5035919050565b6000815180845260005b8181101561159c57602081850181015186830182015201611580565b506000602082860101526020601f19601f83011685010191505092915050565b8881526001600160a01b0388166020820152610100604082018190526000906115e790830189611576565b82810360608401526115f98189611576565b9615156080840152505092151560a08401526001600160a01b039190911660c083015260e090910152949350505050565b600082825180855260208501945060208160051b8301016020850160005b8381101561167a57601f19858403018852611664838351611576565b6020988901989093509190910190600101611648565b50909695505050505050565b831515815282151560208201526060604082015281516060820152600060208301516116bd60808401826001600160a01b03169052565b50604083015161014060a08401526116d96101a084018261162a565b90506060840151605f198483030160c08501526116f6828261162a565b9150506080840151605f198483030160e08501526117148282611576565b91505060a0840151605f19848303016101008501526117338282611576565b91505060c084015161174a61012085018215159052565b5060e084015115156101408401526101008401516001600160a01b031661016084015261012090930151610180909201919091525092915050565b8a81526001600160a01b038a166020820152610140604082018190526000906117b09083018b61162a565b82810360608401526117c2818b61162a565b905082810360808401526117d6818a611576565b905082810360a08401526117ea8189611576565b96151560c0840152505092151560e08401526001600160a01b0391909116610100830152610120909101529695505050505050565b602081526000611556602083018461162a565b634e487b7160e01b600052604160045260246000fd5b604051601f8201601f1916810167ffffffffffffffff8111828210171561187157611871611832565b604052919050565b600082601f83011261188a57600080fd5b813567ffffffffffffffff8111156118a4576118a4611832565b6118b7601f8201601f1916602001611848565b8181528460208386010111156118cc57600080fd5b816020850160208301376000918101602001919091529392505050565b600082601f8301126118fa57600080fd5b813567ffffffffffffffff81111561191457611914611832565b8060051b61192460208201611848565b9182526020818501810192908101908684111561194057600080fd5b6020860192505b8383101561198757823567ffffffffffffffff81111561196657600080fd5b611975886020838a0101611879565b83525060209283019290910190611947565b9695505050505050565b600080600080608085870312156119a757600080fd5b843567ffffffffffffffff8111156119be57600080fd5b6119ca878288016118e9565b945050602085013567ffffffffffffffff8111156119e757600080fd5b6119f3878288016118e9565b935050604085013567ffffffffffffffff811115611a1057600080fd5b611a1c87828801611879565b925050606085013567ffffffffffffffff811115611a3957600080fd5b611a4587828801611879565b91505092959194509250565b600181811c90821680611a6557607f821691505b602082108103611a8557634e487b7160e01b600052602260045260246000fd5b50919050565b60208082526017908201527f496e76616c696420707265736372697074696f6e204944000000000000000000604082015260600190565b60208082526021908201527f4f6e6c792061646d696e2063616e2063616c6c20746869732066756e6374696f6040820152603760f91b606082015260800190565b600060018201611b2357634e487b7160e01b600052601160045260246000fd5b5060010190565b601f821115611b7457806000526020600020601f840160051c81016020851015611b515750805b601f840160051c820191505b81811015611b715760008155600101611b5d565b50505b505050565b815167ffffffffffffffff811115611b9357611b93611832565b611ba781611ba18454611a51565b84611b2a565b6020601f821160018114611bdb5760008315611bc35750848201515b600019600385901b1c1916600184901b178455611b71565b600084815260208120601f198516915b82811015611c0b5787850151825560209485019460019092019101611beb565b5084821015611c295786840151600019600387901b60f8161c191681555b50505050600190811b0190555056fea26469706673582212200346f45de3c3d531855b094d8ae86f541ca0b76239dc81d566be710b0594dbbb64736f6c634300081c0033","opcodes":"PUSH1 0x80 PUSH1 0x40 MSTORE CALLVALUE DUP1 ISZERO PUSH1 0xF JUMPI PUSH1 0x0 DUP1 REVERT JUMPDEST POP PUSH1 0x4 DUP1 SLOAD PUSH1 0x1 PUSH1 0x1 PUSH1 0xA0 SHL SUB NOT AND CALLER OR SWAP1 SSTORE PUSH2 0x1C6E DUP1 PUSH2 0x31 PUSH1 0x0 CODECOPY PUSH1 0x0 RETURN INVALID PUSH1 0x80 PUSH1 0x40 MSTORE CALLVALUE DUP1 ISZERO PUSH2 0x10 JUMPI PUSH1 0x0 DUP1 REVERT JUMPDEST POP PUSH1 0x4 CALLDATASIZE LT PUSH2 0xEA JUMPI PUSH1 0x0 CALLDATALOAD PUSH1 0xE0 SHR DUP1 PUSH4 0x9D45CAE5 GT PUSH2 0x8C JUMPI DUP1 PUSH4 0xB6558498 GT PUSH2 0x66 JUMPI DUP1 PUSH4 0xB6558498 EQ PUSH2 0x238 JUMPI DUP1 PUSH4 0xC824E4C6 EQ PUSH2 0x241 JUMPI DUP1 PUSH4 0xF115D955 EQ PUSH2 0x254 JUMPI DUP1 PUSH4 0xF851A440 EQ PUSH2 0x267 JUMPI PUSH1 0x0 DUP1 REVERT JUMPDEST DUP1 PUSH4 0x9D45CAE5 EQ PUSH2 0x1E4 JUMPI DUP1 PUSH4 0xA219741B EQ PUSH2 0x1F7 JUMPI DUP1 PUSH4 0xAB0101DD EQ PUSH2 0x217 JUMPI PUSH1 0x0 DUP1 REVERT JUMPDEST DUP1 PUSH4 0x3FEB9003 GT PUSH2 0xC8 JUMPI DUP1 PUSH4 0x3FEB9003 EQ PUSH2 0x171 JUMPI DUP1 PUSH4 0x581F8765 EQ PUSH2 0x184 JUMPI DUP1 PUSH4 0x58C9202C EQ PUSH2 0x1A6 JUMPI DUP1 PUSH4 0x5E189509 EQ PUSH2 0x1BB JUMPI PUSH1 0x0 DUP1 REVERT JUMPDEST DUP1 PUSH4 0x1F4BAA61 EQ PUSH2 0xEF JUMPI DUP1 PUSH4 0x2D3975F0 EQ PUSH2 0x127 JUMPI DUP1 PUSH4 0x31DFC91B EQ PUSH2 0x14A JUMPI JUMPDEST PUSH1 0x0 DUP1 REVERT JUMPDEST PUSH2 0x112 PUSH2 0xFD CALLDATASIZE PUSH1 0x4 PUSH2 0x152D JUMP JUMPDEST PUSH1 0x3 PUSH1 0x20 MSTORE PUSH1 0x0 SWAP1 DUP2 MSTORE PUSH1 0x40 SWAP1 KECCAK256 SLOAD PUSH1 0xFF AND DUP2 JUMP JUMPDEST PUSH1 0x40 MLOAD SWAP1 ISZERO ISZERO DUP2 MSTORE PUSH1 0x20 ADD JUMPDEST PUSH1 0x40 MLOAD DUP1 SWAP2 SUB SWAP1 RETURN JUMPDEST PUSH2 0x112 PUSH2 0x135 CALLDATASIZE PUSH1 0x4 PUSH2 0x152D JUMP JUMPDEST PUSH1 0x2 PUSH1 0x20 MSTORE PUSH1 0x0 SWAP1 DUP2 MSTORE PUSH1 0x40 SWAP1 KECCAK256 SLOAD PUSH1 0xFF AND DUP2 JUMP JUMPDEST PUSH2 0x15D PUSH2 0x158 CALLDATASIZE PUSH1 0x4 PUSH2 0x155D JUMP JUMPDEST PUSH2 0x292 JUMP JUMPDEST PUSH1 0x40 MLOAD PUSH2 0x11E SWAP9 SWAP8 SWAP7 SWAP6 SWAP5 SWAP4 SWAP3 SWAP2 SWAP1 PUSH2 0x15BC JUMP JUMPDEST PUSH2 0x15D PUSH2 0x17F CALLDATASIZE PUSH1 0x4 PUSH2 0x155D JUMP JUMPDEST PUSH2 0x401 JUMP JUMPDEST PUSH2 0x197 PUSH2 0x192 CALLDATASIZE PUSH1 0x4 PUSH2 0x155D JUMP JUMPDEST PUSH2 0x5CC JUMP JUMPDEST PUSH1 0x40 MLOAD PUSH2 0x11E SWAP4 SWAP3 SWAP2 SWAP1 PUSH2 0x1686 JUMP JUMPDEST PUSH2 0x1B9 PUSH2 0x1B4 CALLDATASIZE PUSH1 0x4 PUSH2 0x152D JUMP JUMPDEST PUSH2 0x956 JUMP JUMPDEST STOP JUMPDEST PUSH2 0x1CE PUSH2 0x1C9 CALLDATASIZE PUSH1 0x4 PUSH2 0x155D JUMP JUMPDEST PUSH2 0x9DA JUMP JUMPDEST PUSH1 0x40 MLOAD PUSH2 0x11E SWAP11 SWAP10 SWAP9 SWAP8 SWAP7 SWAP6 SWAP5 SWAP4 SWAP3 SWAP2 SWAP1 PUSH2 0x1785 JUMP JUMPDEST PUSH2 0x1B9 PUSH2 0x1F2 CALLDATASIZE PUSH1 0x4 PUSH2 0x152D JUMP JUMPDEST PUSH2 0xD4F JUMP JUMPDEST PUSH2 0x20A PUSH2 0x205 CALLDATASIZE PUSH1 0x4 PUSH2 0x155D JUMP JUMPDEST PUSH2 0xDCD JUMP JUMPDEST PUSH1 0x40 MLOAD PUSH2 0x11E SWAP2 SWAP1 PUSH2 0x181F JUMP JUMPDEST PUSH2 0x22A PUSH2 0x225 CALLDATASIZE PUSH1 0x4 PUSH2 0x1991 JUMP JUMPDEST PUSH2 0xEE0 JUMP JUMPDEST PUSH1 0x40 MLOAD SWAP1 DUP2 MSTORE PUSH1 0x20 ADD PUSH2 0x11E JUMP JUMPDEST PUSH2 0x22A PUSH1 0x0 SLOAD DUP2 JUMP JUMPDEST PUSH2 0x20A PUSH2 0x24F CALLDATASIZE PUSH1 0x4 PUSH2 0x155D JUMP JUMPDEST PUSH2 0x1144 JUMP JUMPDEST PUSH2 0x1B9 PUSH2 0x262 CALLDATASIZE PUSH1 0x4 PUSH2 0x155D JUMP JUMPDEST PUSH2 0x124C JUMP JUMPDEST PUSH1 0x4 SLOAD PUSH2 0x27A SWAP1 PUSH1 0x1 PUSH1 0x1 PUSH1 0xA0 SHL SUB AND DUP2 JUMP JUMPDEST PUSH1 0x40 MLOAD PUSH1 0x1 PUSH1 0x1 PUSH1 0xA0 SHL SUB SWAP1 SWAP2 AND DUP2 MSTORE PUSH1 0x20 ADD PUSH2 0x11E JUMP JUMPDEST PUSH1 0x1 PUSH1 0x20 DUP2 SWAP1 MSTORE PUSH1 0x0 SWAP2 DUP3 MSTORE PUSH1 0x40 SWAP1 SWAP2 KECCAK256 DUP1 SLOAD SWAP2 DUP2 ADD SLOAD PUSH1 0x4 DUP3 ADD DUP1 SLOAD PUSH1 0x1 PUSH1 0x1 PUSH1 0xA0 SHL SUB SWAP1 SWAP3 AND SWAP3 SWAP2 PUSH2 0x2C5 SWAP1 PUSH2 0x1A51 JUMP JUMPDEST DUP1 PUSH1 0x1F ADD PUSH1 0x20 DUP1 SWAP2 DIV MUL PUSH1 0x20 ADD PUSH1 0x40 MLOAD SWAP1 DUP2 ADD PUSH1 0x40 MSTORE DUP1 SWAP3 SWAP2 SWAP1 DUP2 DUP2 MSTORE PUSH1 0x20 ADD DUP3 DUP1 SLOAD PUSH2 0x2F1 SWAP1 PUSH2 0x1A51 JUMP JUMPDEST DUP1 ISZERO PUSH2 0x33E JUMPI DUP1 PUSH1 0x1F LT PUSH2 0x313 JUMPI PUSH2 0x100 DUP1 DUP4 SLOAD DIV MUL DUP4 MSTORE SWAP2 PUSH1 0x20 ADD SWAP2 PUSH2 0x33E JUMP JUMPDEST DUP3 ADD SWAP2 SWAP1 PUSH1 0x0 MSTORE PUSH1 0x20 PUSH1 0x0 KECCAK256 SWAP1 JUMPDEST DUP2 SLOAD DUP2 MSTORE SWAP1 PUSH1 0x1 ADD SWAP1 PUSH1 0x20 ADD DUP1 DUP4 GT PUSH2 0x321 JUMPI DUP3 SWAP1 SUB PUSH1 0x1F AND DUP3 ADD SWAP2 JUMPDEST POP POP POP POP POP SWAP1 DUP1 PUSH1 0x5 ADD DUP1 SLOAD PUSH2 0x353 SWAP1 PUSH2 0x1A51 JUMP JUMPDEST DUP1 PUSH1 0x1F ADD PUSH1 0x20 DUP1 SWAP2 DIV MUL PUSH1 0x20 ADD PUSH1 0x40 MLOAD SWAP1 DUP2 ADD PUSH1 0x40 MSTORE DUP1 SWAP3 SWAP2 SWAP1 DUP2 DUP2 MSTORE PUSH1 0x20 ADD DUP3 DUP1 SLOAD PUSH2 0x37F SWAP1 PUSH2 0x1A51 JUMP JUMPDEST DUP1 ISZERO PUSH2 0x3CC JUMPI DUP1 PUSH1 0x1F LT PUSH2 0x3A1 JUMPI PUSH2 0x100 DUP1 DUP4 SLOAD DIV MUL DUP4 MSTORE SWAP2 PUSH1 0x20 ADD SWAP2 PUSH2 0x3CC JUMP JUMPDEST DUP3 ADD SWAP2 SWAP1 PUSH1 0x0 MSTORE PUSH1 0x20 PUSH1 0x0 KECCAK256 SWAP1 JUMPDEST DUP2 SLOAD DUP2 MSTORE SWAP1 PUSH1 0x1 ADD SWAP1 PUSH1 0x20 ADD DUP1 DUP4 GT PUSH2 0x3AF JUMPI DUP3 SWAP1 SUB PUSH1 0x1F AND DUP3 ADD SWAP2 JUMPDEST POP POP POP POP PUSH1 0x6 DUP4 ADD SLOAD PUSH1 0x7 SWAP1 SWAP4 ADD SLOAD SWAP2 SWAP3 PUSH1 0xFF DUP1 DUP3 AND SWAP4 PUSH2 0x100 DUP4 DIV SWAP1 SWAP2 AND SWAP3 POP PUSH3 0x10000 SWAP1 SWAP2 DIV PUSH1 0x1 PUSH1 0x1 PUSH1 0xA0 SHL SUB AND SWAP1 DUP9 JUMP JUMPDEST PUSH1 0x0 DUP1 PUSH1 0x60 DUP1 PUSH1 0x0 DUP1 PUSH1 0x0 DUP1 PUSH1 0x0 DUP10 GT DUP1 ISZERO PUSH2 0x41F JUMPI POP PUSH1 0x0 SLOAD DUP10 GT ISZERO JUMPDEST PUSH2 0x444 JUMPI PUSH1 0x40 MLOAD PUSH3 0x461BCD PUSH1 0xE5 SHL DUP2 MSTORE PUSH1 0x4 ADD PUSH2 0x43B SWAP1 PUSH2 0x1A8B JUMP JUMPDEST PUSH1 0x40 MLOAD DUP1 SWAP2 SUB SWAP1 REVERT JUMPDEST PUSH1 0x0 DUP10 DUP2 MSTORE PUSH1 0x1 PUSH1 0x20 DUP2 SWAP1 MSTORE PUSH1 0x40 SWAP1 SWAP2 KECCAK256 DUP1 SLOAD SWAP2 DUP2 ADD SLOAD PUSH1 0x6 DUP3 ADD SLOAD PUSH1 0x7 DUP4 ADD SLOAD PUSH1 0x4 DUP5 ADD DUP1 SLOAD SWAP5 SWAP6 SWAP5 PUSH1 0x1 PUSH1 0x1 PUSH1 0xA0 SHL SUB SWAP5 DUP6 AND SWAP5 SWAP2 SWAP4 PUSH1 0x5 DUP9 ADD SWAP4 PUSH1 0xFF DUP1 DUP4 AND SWAP5 PUSH2 0x100 DUP5 DIV SWAP1 SWAP2 AND SWAP4 PUSH3 0x10000 SWAP1 SWAP4 DIV AND SWAP2 DUP7 SWAP1 PUSH2 0x4A4 SWAP1 PUSH2 0x1A51 JUMP JUMPDEST DUP1 PUSH1 0x1F ADD PUSH1 0x20 DUP1 SWAP2 DIV MUL PUSH1 0x20 ADD PUSH1 0x40 MLOAD SWAP1 DUP2 ADD PUSH1 0x40 MSTORE DUP1 SWAP3 SWAP2 SWAP1 DUP2 DUP2 MSTORE PUSH1 0x20 ADD DUP3 DUP1 SLOAD PUSH2 0x4D0 SWAP1 PUSH2 0x1A51 JUMP JUMPDEST DUP1 ISZERO PUSH2 0x51D JUMPI DUP1 PUSH1 0x1F LT PUSH2 0x4F2 JUMPI PUSH2 0x100 DUP1 DUP4 SLOAD DIV MUL DUP4 MSTORE SWAP2 PUSH1 0x20 ADD SWAP2 PUSH2 0x51D JUMP JUMPDEST DUP3 ADD SWAP2 SWAP1 PUSH1 0x0 MSTORE PUSH1 0x20 PUSH1 0x0 KECCAK256 SWAP1 JUMPDEST DUP2 SLOAD DUP2 MSTORE SWAP1 PUSH1 0x1 ADD SWAP1 PUSH1 0x20 ADD DUP1 DUP4 GT PUSH2 0x500 JUMPI DUP3 SWAP1 SUB PUSH1 0x1F AND DUP3 ADD SWAP2 JUMPDEST POP POP POP POP POP SWAP6 POP DUP5 DUP1 SLOAD PUSH2 0x530 SWAP1 PUSH2 0x1A51 JUMP JUMPDEST DUP1 PUSH1 0x1F ADD PUSH1 0x20 DUP1 SWAP2 DIV MUL PUSH1 0x20 ADD PUSH1 0x40 MLOAD SWAP1 DUP2 ADD PUSH1 0x40 MSTORE DUP1 SWAP3 SWAP2 SWAP1 DUP2 DUP2 MSTORE PUSH1 0x20 ADD DUP3 DUP1 SLOAD PUSH2 0x55C SWAP1 PUSH2 0x1A51 JUMP JUMPDEST DUP1 ISZERO PUSH2 0x5A9 JUMPI DUP1 PUSH1 0x1F LT PUSH2 0x57E JUMPI PUSH2 0x100 DUP1 DUP4 SLOAD DIV MUL DUP4 MSTORE SWAP2 PUSH1 0x20 ADD SWAP2 PUSH2 0x5A9 JUMP JUMPDEST DUP3 ADD SWAP2 SWAP1 PUSH1 0x0 MSTORE PUSH1 0x20 PUSH1 0x0 KECCAK256 SWAP1 JUMPDEST DUP2 SLOAD DUP2 MSTORE SWAP1 PUSH1 0x1 ADD SWAP1 PUSH1 0x20 ADD DUP1 DUP4 GT PUSH2 0x58C JUMPI DUP3 SWAP1 SUB PUSH1 0x1F AND DUP3 ADD SWAP2 JUMPDEST POP POP POP POP POP SWAP5 POP SWAP9 POP SWAP9 POP SWAP9 POP SWAP9 POP SWAP9 POP SWAP9 POP SWAP9 POP SWAP9 POP POP SWAP2 SWAP4 SWAP6 SWAP8 POP SWAP2 SWAP4 SWAP6 SWAP8 JUMP JUMPDEST PUSH1 0x0 DUP1 PUSH2 0x5D7 PUSH2 0x13FF JUMP JUMPDEST DUP4 ISZERO DUP1 PUSH2 0x5E5 JUMPI POP PUSH1 0x0 SLOAD DUP5 GT JUMPDEST ISZERO PUSH2 0x600 JUMPI PUSH2 0x5F2 PUSH2 0x13FF JUMP JUMPDEST PUSH1 0x0 SWAP4 POP DUP4 SWAP3 POP SWAP1 POP PUSH2 0x94F JUMP JUMPDEST PUSH1 0x0 DUP5 DUP2 MSTORE PUSH1 0x1 PUSH1 0x20 DUP2 DUP2 MSTORE PUSH1 0x40 DUP1 DUP5 KECCAK256 DUP2 MLOAD PUSH2 0x140 DUP2 ADD DUP4 MSTORE DUP2 SLOAD DUP2 MSTORE SWAP4 DUP2 ADD SLOAD PUSH1 0x1 PUSH1 0x1 PUSH1 0xA0 SHL SUB AND DUP5 DUP5 ADD MSTORE PUSH1 0x2 DUP2 ADD DUP1 SLOAD DUP4 MLOAD DUP2 DUP7 MUL DUP2 ADD DUP7 ADD DUP6 MSTORE DUP2 DUP2 MSTORE SWAP3 SWAP5 SWAP4 DUP7 ADD SWAP4 DUP8 SWAP1 DUP5 ADD JUMPDEST DUP3 DUP3 LT ISZERO PUSH2 0x6FA JUMPI DUP4 DUP3 SWAP1 PUSH1 0x0 MSTORE PUSH1 0x20 PUSH1 0x0 KECCAK256 ADD DUP1 SLOAD PUSH2 0x66D SWAP1 PUSH2 0x1A51 JUMP JUMPDEST DUP1 PUSH1 0x1F ADD PUSH1 0x20 DUP1 SWAP2 DIV MUL PUSH1 0x20 ADD PUSH1 0x40 MLOAD SWAP1 DUP2 ADD PUSH1 0x40 MSTORE DUP1 SWAP3 SWAP2 SWAP1 DUP2 DUP2 MSTORE PUSH1 0x20 ADD DUP3 DUP1 SLOAD PUSH2 0x699 SWAP1 PUSH2 0x1A51 JUMP JUMPDEST DUP1 ISZERO PUSH2 0x6E6 JUMPI DUP1 PUSH1 0x1F LT PUSH2 0x6BB JUMPI PUSH2 0x100 DUP1 DUP4 SLOAD DIV MUL DUP4 MSTORE SWAP2 PUSH1 0x20 ADD SWAP2 PUSH2 0x6E6 JUMP JUMPDEST DUP3 ADD SWAP2 SWAP1 PUSH1 0x0 MSTORE PUSH1 0x20 PUSH1 0x0 KECCAK256 SWAP1 JUMPDEST DUP2 SLOAD DUP2 MSTORE SWAP1 PUSH1 0x1 ADD SWAP1 PUSH1 0x20 ADD DUP1 DUP4 GT PUSH2 0x6C9 JUMPI DUP3 SWAP1 SUB PUSH1 0x1F AND DUP3 ADD SWAP2 JUMPDEST POP POP POP POP POP DUP2 MSTORE PUSH1 0x20 ADD SWAP1 PUSH1 0x1 ADD SWAP1 PUSH2 0x64E JUMP JUMPDEST POP POP POP POP DUP2 MSTORE PUSH1 0x20 ADD PUSH1 0x3 DUP3 ADD DUP1 SLOAD DUP1 PUSH1 0x20 MUL PUSH1 0x20 ADD PUSH1 0x40 MLOAD SWAP1 DUP2 ADD PUSH1 0x40 MSTORE DUP1 SWAP3 SWAP2 SWAP1 DUP2 DUP2 MSTORE PUSH1 0x20 ADD PUSH1 0x0 SWAP1 JUMPDEST DUP3 DUP3 LT ISZERO PUSH2 0x7D3 JUMPI DUP4 DUP3 SWAP1 PUSH1 0x0 MSTORE PUSH1 0x20 PUSH1 0x0 KECCAK256 ADD DUP1 SLOAD PUSH2 0x746 SWAP1 PUSH2 0x1A51 JUMP JUMPDEST DUP1 PUSH1 0x1F ADD PUSH1 0x20 DUP1 SWAP2 DIV MUL PUSH1 0x20 ADD PUSH1 0x40 MLOAD SWAP1 DUP2 ADD PUSH1 0x40 MSTORE DUP1 SWAP3 SWAP2 SWAP1 DUP2 DUP2 MSTORE PUSH1 0x20 ADD DUP3 DUP1 SLOAD PUSH2 0x772 SWAP1 PUSH2 0x1A51 JUMP JUMPDEST DUP1 ISZERO PUSH2 0x7BF JUMPI DUP1 PUSH1 0x1F LT PUSH2 0x794 JUMPI PUSH2 0x100 DUP1 DUP4 SLOAD DIV MUL DUP4 MSTORE SWAP2 PUSH1 0x20 ADD SWAP2 PUSH2 0x7BF JUMP JUMPDEST DUP3 ADD SWAP2 SWAP1 PUSH1 0x0 MSTORE PUSH1 0x20 PUSH1 0x0 KECCAK256 SWAP1 JUMPDEST DUP2 SLOAD DUP2 MSTORE SWAP1 PUSH1 0x1 ADD SWAP1 PUSH1 0x20 ADD DUP1 DUP4 GT PUSH2 0x7A2 JUMPI DUP3 SWAP1 SUB PUSH1 0x1F AND DUP3 ADD SWAP2 JUMPDEST POP POP POP POP POP DUP2 MSTORE PUSH1 0x20 ADD SWAP1 PUSH1 0x1 ADD SWAP1 PUSH2 0x727 JUMP JUMPDEST POP POP POP POP DUP2 MSTORE PUSH1 0x20 ADD PUSH1 0x4 DUP3 ADD DUP1 SLOAD PUSH2 0x7EB SWAP1 PUSH2 0x1A51 JUMP JUMPDEST DUP1 PUSH1 0x1F ADD PUSH1 0x20 DUP1 SWAP2 DIV MUL PUSH1 0x20 ADD PUSH1 0x40 MLOAD SWAP1 DUP2 ADD PUSH1 0x40 MSTORE DUP1 SWAP3 SWAP2 SWAP1 DUP2 DUP2 MSTORE PUSH1 0x20 ADD DUP3 DUP1 SLOAD PUSH2 0x817 SWAP1 PUSH2 0x1A51 JUMP JUMPDEST DUP1 ISZERO PUSH2 0x864 JUMPI DUP1 PUSH1 0x1F LT PUSH2 0x839 JUMPI PUSH2 0x100 DUP1 DUP4 SLOAD DIV MUL DUP4 MSTORE SWAP2 PUSH1 0x20 ADD SWAP2 PUSH2 0x864 JUMP JUMPDEST DUP3 ADD SWAP2 SWAP1 PUSH1 0x0 MSTORE PUSH1 0x20 PUSH1 0x0 KECCAK256 SWAP1 JUMPDEST DUP2 SLOAD DUP2 MSTORE SWAP1 PUSH1 0x1 ADD SWAP1 PUSH1 0x20 ADD DUP1 DUP4 GT PUSH2 0x847 JUMPI DUP3 SWAP1 SUB PUSH1 0x1F AND DUP3 ADD SWAP2 JUMPDEST POP POP POP POP POP DUP2 MSTORE PUSH1 0x20 ADD PUSH1 0x5 DUP3 ADD DUP1 SLOAD PUSH2 0x87D SWAP1 PUSH2 0x1A51 JUMP JUMPDEST DUP1 PUSH1 0x1F ADD PUSH1 0x20 DUP1 SWAP2 DIV MUL PUSH1 0x20 ADD PUSH1 0x40 MLOAD SWAP1 DUP2 ADD PUSH1 0x40 MSTORE DUP1 SWAP3 SWAP2 SWAP1 DUP2 DUP2 MSTORE PUSH1 0x20 ADD DUP3 DUP1 SLOAD PUSH2 0x8A9 SWAP1 PUSH2 0x1A51 JUMP JUMPDEST DUP1 ISZERO PUSH2 0x8F6 JUMPI DUP1 PUSH1 0x1F LT PUSH2 0x8CB JUMPI PUSH2 0x100 DUP1 DUP4 SLOAD DIV MUL DUP4 MSTORE SWAP2 PUSH1 0x20 ADD SWAP2 PUSH2 0x8F6 JUMP JUMPDEST DUP3 ADD SWAP2 SWAP1 PUSH1 0x0 MSTORE PUSH1 0x20 PUSH1 0x0 KECCAK256 SWAP1 JUMPDEST DUP2 SLOAD DUP2 MSTORE SWAP1 PUSH1 0x1 ADD SWAP1 PUSH1 0x20 ADD DUP1 DUP4 GT PUSH2 0x8D9 JUMPI DUP3 SWAP1 SUB PUSH1 0x1F AND DUP3 ADD SWAP2 JUMPDEST POP POP POP SWAP2 DUP4 MSTORE POP POP PUSH1 0x6 DUP3 ADD SLOAD PUSH1 0xFF DUP1 DUP3 AND ISZERO ISZERO PUSH1 0x20 DUP5 ADD MSTORE PUSH2 0x100 DUP3 DIV AND ISZERO ISZERO PUSH1 0x40 DUP4 ADD MSTORE PUSH3 0x10000 SWAP1 DIV PUSH1 0x1 PUSH1 0x1 PUSH1 0xA0 SHL SUB AND PUSH1 0x60 DUP3 ADD MSTORE PUSH1 0x7 SWAP1 SWAP2 ADD SLOAD PUSH1 0x80 SWAP1 SWAP2 ADD MSTORE PUSH1 0xC0 DUP2 ADD MLOAD PUSH1 0xE0 DUP3 ADD MLOAD SWAP1 SWAP6 POP SWAP4 POP SWAP2 POP POP JUMPDEST SWAP2 SWAP4 SWAP1 SWAP3 POP JUMP JUMPDEST PUSH1 0x4 SLOAD PUSH1 0x1 PUSH1 0x1 PUSH1 0xA0 SHL SUB AND CALLER EQ PUSH2 0x980 JUMPI PUSH1 0x40 MLOAD PUSH3 0x461BCD PUSH1 0xE5 SHL DUP2 MSTORE PUSH1 0x4 ADD PUSH2 0x43B SWAP1 PUSH2 0x1AC2 JUMP JUMPDEST PUSH1 0x1 PUSH1 0x1 PUSH1 0xA0 SHL SUB DUP2 AND PUSH1 0x0 DUP2 DUP2 MSTORE PUSH1 0x2 PUSH1 0x20 SWAP1 DUP2 MSTORE PUSH1 0x40 SWAP2 DUP3 SWAP1 KECCAK256 DUP1 SLOAD PUSH1 0xFF NOT AND PUSH1 0x1 OR SWAP1 SSTORE SWAP1 MLOAD SWAP2 DUP3 MSTORE PUSH31 0xA8F5CEC2BB2E273B1757CCE595776DACDC60B8C5245756D69FA2BD0B2833CC SWAP2 ADD JUMPDEST PUSH1 0x40 MLOAD DUP1 SWAP2 SUB SWAP1 LOG1 POP JUMP JUMPDEST PUSH1 0x0 DUP1 PUSH1 0x60 DUP1 PUSH1 0x60 DUP1 PUSH1 0x0 DUP1 PUSH1 0x0 DUP1 PUSH1 0x0 DUP12 GT DUP1 ISZERO PUSH2 0x9FB JUMPI POP PUSH1 0x0 SLOAD DUP12 GT ISZERO JUMPDEST PUSH2 0xA17 JUMPI PUSH1 0x40 MLOAD PUSH3 0x461BCD PUSH1 0xE5 SHL DUP2 MSTORE PUSH1 0x4 ADD PUSH2 0x43B SWAP1 PUSH2 0x1A8B JUMP JUMPDEST PUSH1 0x0 DUP12 DUP2 MSTORE PUSH1 0x1 PUSH1 0x20 DUP2 DUP2 MSTORE PUSH1 0x40 DUP1 DUP5 KECCAK256 DUP1 SLOAD SWAP4 DUP2 ADD SLOAD PUSH1 0x6 DUP3 ADD SLOAD PUSH1 0x7 DUP4 ADD SLOAD PUSH1 0x2 DUP5 ADD DUP1 SLOAD DUP7 MLOAD DUP2 DUP10 MUL DUP2 ADD DUP10 ADD SWAP1 SWAP8 MSTORE DUP1 DUP8 MSTORE SWAP5 SWAP9 PUSH1 0x1 PUSH1 0x1 PUSH1 0xA0 SHL SUB SWAP5 DUP6 AND SWAP8 SWAP2 SWAP7 PUSH1 0x3 DUP12 ADD SWAP7 PUSH1 0x4 DUP13 ADD SWAP7 PUSH1 0x5 DUP14 ADD SWAP7 PUSH1 0xFF DUP1 DUP3 AND SWAP8 PUSH2 0x100 DUP4 DIV SWAP1 SWAP2 AND SWAP7 PUSH3 0x10000 SWAP1 SWAP3 DIV SWAP1 SWAP3 AND SWAP5 SWAP2 SWAP4 SWAP3 DUP12 SWAP3 SWAP1 SWAP2 DUP5 ADD JUMPDEST DUP3 DUP3 LT ISZERO PUSH2 0xB3C JUMPI DUP4 DUP3 SWAP1 PUSH1 0x0 MSTORE PUSH1 0x20 PUSH1 0x0 KECCAK256 ADD DUP1 SLOAD PUSH2 0xAAF SWAP1 PUSH2 0x1A51 JUMP JUMPDEST DUP1 PUSH1 0x1F ADD PUSH1 0x20 DUP1 SWAP2 DIV MUL PUSH1 0x20 ADD PUSH1 0x40 MLOAD SWAP1 DUP2 ADD PUSH1 0x40 MSTORE DUP1 SWAP3 SWAP2 SWAP1 DUP2 DUP2 MSTORE PUSH1 0x20 ADD DUP3 DUP1 SLOAD PUSH2 0xADB SWAP1 PUSH2 0x1A51 JUMP JUMPDEST DUP1 ISZERO PUSH2 0xB28 JUMPI DUP1 PUSH1 0x1F LT PUSH2 0xAFD JUMPI PUSH2 0x100 DUP1 DUP4 SLOAD DIV MUL DUP4 MSTORE SWAP2 PUSH1 0x20 ADD SWAP2 PUSH2 0xB28 JUMP JUMPDEST DUP3 ADD SWAP2 SWAP1 PUSH1 0x0 MSTORE PUSH1 0x20 PUSH1 0x0 KECCAK256 SWAP1 JUMPDEST DUP2 SLOAD DUP2 MSTORE SWAP1 PUSH1 0x1 ADD SWAP1 PUSH1 0x20 ADD DUP1 DUP4 GT PUSH2 0xB0B JUMPI DUP3 SWAP1 SUB PUSH1 0x1F AND DUP3 ADD SWAP2 JUMPDEST POP POP POP POP POP DUP2 MSTORE PUSH1 0x20 ADD SWAP1 PUSH1 0x1 ADD SWAP1 PUSH2 0xA90 JUMP JUMPDEST POP POP POP POP SWAP8 POP DUP7 DUP1 SLOAD DUP1 PUSH1 0x20 MUL PUSH1 0x20 ADD PUSH1 0x40 MLOAD SWAP1 DUP2 ADD PUSH1 0x40 MSTORE DUP1 SWAP3 SWAP2 SWAP1 DUP2 DUP2 MSTORE PUSH1 0x20 ADD PUSH1 0x0 SWAP1 JUMPDEST DUP3 DUP3 LT ISZERO PUSH2 0xC0F JUMPI DUP4 DUP3 SWAP1 PUSH1 0x0 MSTORE PUSH1 0x20 PUSH1 0x0 KECCAK256 ADD DUP1 SLOAD PUSH2 0xB82 SWAP1 PUSH2 0x1A51 JUMP JUMPDEST DUP1 PUSH1 0x1F ADD PUSH1 0x20 DUP1 SWAP2 DIV MUL PUSH1 0x20 ADD PUSH1 0x40 MLOAD SWAP1 DUP2 ADD PUSH1 0x40 MSTORE DUP1 SWAP3 SWAP2 SWAP1 DUP2 DUP2 MSTORE PUSH1 0x20 ADD DUP3 DUP1 SLOAD PUSH2 0xBAE SWAP1 PUSH2 0x1A51 JUMP JUMPDEST DUP1 ISZERO PUSH2 0xBFB JUMPI DUP1 PUSH1 0x1F LT PUSH2 0xBD0 JUMPI PUSH2 0x100 DUP1 DUP4 SLOAD DIV MUL DUP4 MSTORE SWAP2 PUSH1 0x20 ADD SWAP2 PUSH2 0xBFB JUMP JUMPDEST DUP3 ADD SWAP2 SWAP1 PUSH1 0x0 MSTORE PUSH1 0x20 PUSH1 0x0 KECCAK256 SWAP1 JUMPDEST DUP2 SLOAD DUP2 MSTORE SWAP1 PUSH1 0x1 ADD SWAP1 PUSH1 0x20 ADD DUP1 DUP4 GT PUSH2 0xBDE JUMPI DUP3 SWAP1 SUB PUSH1 0x1F AND DUP3 ADD SWAP2 JUMPDEST POP POP POP POP POP DUP2 MSTORE PUSH1 0x20 ADD SWAP1 PUSH1 0x1 ADD SWAP1 PUSH2 0xB63 JUMP JUMPDEST POP POP POP POP SWAP7 POP DUP6 DUP1 SLOAD PUSH2 0xC21 SWAP1 PUSH2 0x1A51 JUMP JUMPDEST DUP1 PUSH1 0x1F ADD PUSH1 0x20 DUP1 SWAP2 DIV MUL PUSH1 0x20 ADD PUSH1 0x40 MLOAD SWAP1 DUP2 ADD PUSH1 0x40 MSTORE DUP1 SWAP3 SWAP2 SWAP1 DUP2 DUP2 MSTORE PUSH1 0x20 ADD DUP3 DUP1 SLOAD PUSH2 0xC4D SWAP1 PUSH2 0x1A51 JUMP JUMPDEST DUP1 ISZERO PUSH2 0xC9A JUMPI DUP1 PUSH1 0x1F LT PUSH2 0xC6F JUMPI PUSH2 0x100 DUP1 DUP4 SLOAD DIV MUL DUP4 MSTORE SWAP2 PUSH1 0x20 ADD SWAP2 PUSH2 0xC9A JUMP JUMPDEST DUP3 ADD SWAP2 SWAP1 PUSH1 0x0 MSTORE PUSH1 0x20 PUSH1 0x0 KECCAK256 SWAP1 JUMPDEST DUP2 SLOAD DUP2 MSTORE SWAP1 PUSH1 0x1 ADD SWAP1 PUSH1 0x20 ADD DUP1 DUP4 GT PUSH2 0xC7D JUMPI DUP3 SWAP1 SUB PUSH1 0x1F AND DUP3 ADD SWAP2 JUMPDEST POP POP POP POP POP SWAP6 POP DUP5 DUP1 SLOAD PUSH2 0xCAD SWAP1 PUSH2 0x1A51 JUMP JUMPDEST DUP1 PUSH1 0x1F ADD PUSH1 0x20 DUP1 SWAP2 DIV MUL PUSH1 0x20 ADD PUSH1 0x40 MLOAD SWAP1 DUP2 ADD PUSH1 0x40 MSTORE DUP1 SWAP3 SWAP2 SWAP1 DUP2 DUP2 MSTORE PUSH1 0x20 ADD DUP3 DUP1 SLOAD PUSH2 0xCD9 SWAP1 PUSH2 0x1A51 JUMP JUMPDEST DUP1 ISZERO PUSH2 0xD26 JUMPI DUP1 PUSH1 0x1F LT PUSH2 0xCFB JUMPI PUSH2 0x100 DUP1 DUP4 SLOAD DIV MUL DUP4 MSTORE SWAP2 PUSH1 0x20 ADD SWAP2 PUSH2 0xD26 JUMP JUMPDEST DUP3 ADD SWAP2 SWAP1 PUSH1 0x0 MSTORE PUSH1 0x20 PUSH1 0x0 KECCAK256 SWAP1 JUMPDEST DUP2 SLOAD DUP2 MSTORE SWAP1 PUSH1 0x1 ADD SWAP1 PUSH1 0x20 ADD DUP1 DUP4 GT PUSH2 0xD09 JUMPI DUP3 SWAP1 SUB PUSH1 0x1F AND DUP3 ADD SWAP2 JUMPDEST POP POP POP POP POP SWAP5 POP SWAP11 POP SWAP11 POP SWAP11 POP SWAP11 POP SWAP11 POP SWAP11 POP SWAP11 POP SWAP11 POP SWAP11 POP SWAP11 POP POP SWAP2 SWAP4 SWAP6 SWAP8 SWAP10 POP SWAP2 SWAP4 SWAP6 SWAP8 SWAP10 JUMP JUMPDEST PUSH1 0x4 SLOAD PUSH1 0x1 PUSH1 0x1 PUSH1 0xA0 SHL SUB AND CALLER EQ PUSH2 0xD79 JUMPI PUSH1 0x40 MLOAD PUSH3 0x461BCD PUSH1 0xE5 SHL DUP2 MSTORE PUSH1 0x4 ADD PUSH2 0x43B SWAP1 PUSH2 0x1AC2 JUMP JUMPDEST PUSH1 0x1 PUSH1 0x1 PUSH1 0xA0 SHL SUB DUP2 AND PUSH1 0x0 DUP2 DUP2 MSTORE PUSH1 0x3 PUSH1 0x20 SWAP1 DUP2 MSTORE PUSH1 0x40 SWAP2 DUP3 SWAP1 KECCAK256 DUP1 SLOAD PUSH1 0xFF NOT AND PUSH1 0x1 OR SWAP1 SSTORE SWAP1 MLOAD SWAP2 DUP3 MSTORE PUSH32 0xE92112C045A39ACA7CD24E843E336F05C4282FCCE0B95A92607B48CA2562C27F SWAP2 ADD PUSH2 0x9CF JUMP JUMPDEST PUSH1 0x60 PUSH1 0x0 DUP3 GT DUP1 ISZERO PUSH2 0xDE1 JUMPI POP PUSH1 0x0 SLOAD DUP3 GT ISZERO JUMPDEST PUSH2 0xDFD JUMPI PUSH1 0x40 MLOAD PUSH3 0x461BCD PUSH1 0xE5 SHL DUP2 MSTORE PUSH1 0x4 ADD PUSH2 0x43B SWAP1 PUSH2 0x1A8B JUMP JUMPDEST PUSH1 0x0 DUP3 DUP2 MSTORE PUSH1 0x1 PUSH1 0x20 SWAP1 DUP2 MSTORE PUSH1 0x40 DUP1 DUP4 KECCAK256 PUSH1 0x2 ADD DUP1 SLOAD DUP3 MLOAD DUP2 DUP6 MUL DUP2 ADD DUP6 ADD SWAP1 SWAP4 MSTORE DUP1 DUP4 MSTORE SWAP2 SWAP4 SWAP1 SWAP3 DUP5 ADD JUMPDEST DUP3 DUP3 LT ISZERO PUSH2 0xED5 JUMPI DUP4 DUP3 SWAP1 PUSH1 0x0 MSTORE PUSH1 0x20 PUSH1 0x0 KECCAK256 ADD DUP1 SLOAD PUSH2 0xE48 SWAP1 PUSH2 0x1A51 JUMP JUMPDEST DUP1 PUSH1 0x1F ADD PUSH1 0x20 DUP1 SWAP2 DIV MUL PUSH1 0x20 ADD PUSH1 0x40 MLOAD SWAP1 DUP2 ADD PUSH1 0x40 MSTORE DUP1 SWAP3 SWAP2 SWAP1 DUP2 DUP2 MSTORE PUSH1 0x20 ADD DUP3 DUP1 SLOAD PUSH2 0xE74 SWAP1 PUSH2 0x1A51 JUMP JUMPDEST DUP1 ISZERO PUSH2 0xEC1 JUMPI DUP1 PUSH1 0x1F LT PUSH2 0xE96 JUMPI PUSH2 0x100 DUP1 DUP4 SLOAD DIV MUL DUP4 MSTORE SWAP2 PUSH1 0x20 ADD SWAP2 PUSH2 0xEC1 JUMP JUMPDEST DUP3 ADD SWAP2 SWAP1 PUSH1 0x0 MSTORE PUSH1 0x20 PUSH1 0x0 KECCAK256 SWAP1 JUMPDEST DUP2 SLOAD DUP2 MSTORE SWAP1 PUSH1 0x1 ADD SWAP1 PUSH1 0x20 ADD DUP1 DUP4 GT PUSH2 0xEA4 JUMPI DUP3 SWAP1 SUB PUSH1 0x1F AND DUP3 ADD SWAP2 JUMPDEST POP POP POP POP POP DUP2 MSTORE PUSH1 0x20 ADD SWAP1 PUSH1 0x1 ADD SWAP1 PUSH2 0xE29 JUMP JUMPDEST POP POP POP POP SWAP1 POP SWAP2 SWAP1 POP JUMP JUMPDEST CALLER PUSH1 0x0 SWAP1 DUP2 MSTORE PUSH1 0x2 PUSH1 0x20 MSTORE PUSH1 0x40 DUP2 KECCAK256 SLOAD PUSH1 0xFF AND PUSH2 0xF3F JUMPI PUSH1 0x40 MLOAD PUSH3 0x461BCD PUSH1 0xE5 SHL DUP2 MSTORE PUSH1 0x20 PUSH1 0x4 DUP3 ADD MSTORE PUSH1 0x18 PUSH1 0x24 DUP3 ADD MSTORE PUSH32 0x4E6F7420616E20617574686F72697A656420646F63746F720000000000000000 PUSH1 0x44 DUP3 ADD MSTORE PUSH1 0x64 ADD PUSH2 0x43B JUMP JUMPDEST DUP4 MLOAD DUP6 MLOAD EQ PUSH2 0xF9E JUMPI PUSH1 0x40 MLOAD PUSH3 0x461BCD PUSH1 0xE5 SHL DUP2 MSTORE PUSH1 0x20 PUSH1 0x4 DUP3 ADD MSTORE PUSH1 0x25 PUSH1 0x24 DUP3 ADD MSTORE PUSH32 0x4D65646963696E657320616E6420646F7361676573206C656E677468206D6973 PUSH1 0x44 DUP3 ADD MSTORE PUSH5 0xDAC2E8C6D PUSH1 0xDB SHL PUSH1 0x64 DUP3 ADD MSTORE PUSH1 0x84 ADD PUSH2 0x43B JUMP JUMPDEST PUSH1 0x0 DUP1 SLOAD SWAP1 DUP1 PUSH2 0xFAD DUP4 PUSH2 0x1B03 JUMP JUMPDEST SWAP1 SWAP2 SSTORE POP POP PUSH1 0x40 DUP1 MLOAD PUSH2 0x140 DUP2 ADD DUP3 MSTORE PUSH1 0x0 DUP1 SLOAD DUP1 DUP4 MSTORE CALLER PUSH1 0x20 DUP1 DUP6 ADD SWAP2 DUP3 MSTORE DUP5 DUP7 ADD DUP12 DUP2 MSTORE PUSH1 0x60 DUP7 ADD DUP12 SWAP1 MSTORE PUSH1 0x80 DUP7 ADD DUP11 SWAP1 MSTORE PUSH1 0xA0 DUP7 ADD DUP10 SWAP1 MSTORE PUSH1 0x1 PUSH1 0xC0 DUP8 ADD DUP2 SWAP1 MSTORE PUSH1 0xE0 DUP8 ADD DUP7 SWAP1 MSTORE PUSH2 0x100 DUP8 ADD DUP7 SWAP1 MSTORE PUSH2 0x120 DUP8 ADD DUP7 SWAP1 MSTORE SWAP4 DUP6 MSTORE DUP4 DUP3 MSTORE SWAP6 SWAP1 SWAP4 KECCAK256 DUP5 MLOAD DUP2 SSTORE SWAP1 MLOAD SWAP2 DUP2 ADD DUP1 SLOAD PUSH1 0x1 PUSH1 0x1 PUSH1 0xA0 SHL SUB NOT AND PUSH1 0x1 PUSH1 0x1 PUSH1 0xA0 SHL SUB SWAP1 SWAP4 AND SWAP3 SWAP1 SWAP3 OR SWAP1 SWAP2 SSTORE SWAP3 MLOAD DUP1 MLOAD SWAP3 SWAP4 SWAP3 PUSH2 0x1050 SWAP3 PUSH1 0x2 DUP6 ADD SWAP3 ADD SWAP1 PUSH2 0x1468 JUMP JUMPDEST POP PUSH1 0x60 DUP3 ADD MLOAD DUP1 MLOAD PUSH2 0x106C SWAP2 PUSH1 0x3 DUP5 ADD SWAP2 PUSH1 0x20 SWAP1 SWAP2 ADD SWAP1 PUSH2 0x1468 JUMP JUMPDEST POP PUSH1 0x80 DUP3 ADD MLOAD PUSH1 0x4 DUP3 ADD SWAP1 PUSH2 0x1081 SWAP1 DUP3 PUSH2 0x1B79 JUMP JUMPDEST POP PUSH1 0xA0 DUP3 ADD MLOAD PUSH1 0x5 DUP3 ADD SWAP1 PUSH2 0x1096 SWAP1 DUP3 PUSH2 0x1B79 JUMP JUMPDEST POP PUSH1 0xC0 DUP3 ADD MLOAD PUSH1 0x6 DUP3 ADD DUP1 SLOAD PUSH1 0xE0 DUP6 ADD MLOAD PUSH2 0x100 DUP1 DUP8 ADD MLOAD PUSH2 0xFFFF NOT SWAP1 SWAP4 AND SWAP5 ISZERO ISZERO PUSH2 0xFF00 NOT AND SWAP5 SWAP1 SWAP5 OR SWAP1 ISZERO ISZERO SWAP1 SWAP4 MUL SWAP3 SWAP1 SWAP3 OR PUSH3 0x10000 PUSH1 0x1 PUSH1 0xB0 SHL SUB NOT AND PUSH3 0x10000 PUSH1 0x1 PUSH1 0x1 PUSH1 0xA0 SHL SUB SWAP1 SWAP4 AND SWAP3 SWAP1 SWAP3 MUL SWAP2 SWAP1 SWAP2 OR SWAP1 SSTORE PUSH2 0x120 SWAP1 SWAP2 ADD MLOAD PUSH1 0x7 SWAP1 SWAP2 ADD SSTORE PUSH1 0x0 SLOAD PUSH1 0x40 DUP1 MLOAD SWAP2 DUP3 MSTORE CALLER PUSH1 0x20 DUP4 ADD MSTORE PUSH32 0xCF449E5E117E98DAF8940CA4EAEFBD9DF0D1891B867767F86A57DBFB0FBDC846 SWAP2 ADD PUSH1 0x40 MLOAD DUP1 SWAP2 SUB SWAP1 LOG1 POP PUSH1 0x0 SLOAD SWAP5 SWAP4 POP POP POP POP JUMP JUMPDEST PUSH1 0x60 PUSH1 0x0 DUP3 GT DUP1 ISZERO PUSH2 0x1158 JUMPI POP PUSH1 0x0 SLOAD DUP3 GT ISZERO JUMPDEST PUSH2 0x1174 JUMPI PUSH1 0x40 MLOAD PUSH3 0x461BCD PUSH1 0xE5 SHL DUP2 MSTORE PUSH1 0x4 ADD PUSH2 0x43B SWAP1 PUSH2 0x1A8B JUMP JUMPDEST PUSH1 0x0 DUP3 DUP2 MSTORE PUSH1 0x1 PUSH1 0x20 SWAP1 DUP2 MSTORE PUSH1 0x40 DUP1 DUP4 KECCAK256 PUSH1 0x3 ADD DUP1 SLOAD DUP3 MLOAD DUP2 DUP6 MUL DUP2 ADD DUP6 ADD SWAP1 SWAP4 MSTORE DUP1 DUP4 MSTORE SWAP2 SWAP4 SWAP1 SWAP3 DUP5 ADD JUMPDEST DUP3 DUP3 LT ISZERO PUSH2 0xED5 JUMPI DUP4 DUP3 SWAP1 PUSH1 0x0 MSTORE PUSH1 0x20 PUSH1 0x0 KECCAK256 ADD DUP1 SLOAD PUSH2 0x11BF SWAP1 PUSH2 0x1A51 JUMP JUMPDEST DUP1 PUSH1 0x1F ADD PUSH1 0x20 DUP1 SWAP2 DIV MUL PUSH1 0x20 ADD PUSH1 0x40 MLOAD SWAP1 DUP2 ADD PUSH1 0x40 MSTORE DUP1 SWAP3 SWAP2 SWAP1 DUP2 DUP2 MSTORE PUSH1 0x20 ADD DUP3 DUP1 SLOAD PUSH2 0x11EB SWAP1 PUSH2 0x1A51 JUMP JUMPDEST DUP1 ISZERO PUSH2 0x1238 JUMPI DUP1 PUSH1 0x1F LT PUSH2 0x120D JUMPI PUSH2 0x100 DUP1 DUP4 SLOAD DIV MUL DUP4 MSTORE SWAP2 PUSH1 0x20 ADD SWAP2 PUSH2 0x1238 JUMP JUMPDEST DUP3 ADD SWAP2 SWAP1 PUSH1 0x0 MSTORE PUSH1 0x20 PUSH1 0x0 KECCAK256 SWAP1 JUMPDEST DUP2 SLOAD DUP2 MSTORE SWAP1 PUSH1 0x1 ADD SWAP1 PUSH1 0x20 ADD DUP1 DUP4 GT PUSH2 0x121B JUMPI DUP3 SWAP1 SUB PUSH1 0x1F AND DUP3 ADD SWAP2 JUMPDEST POP POP POP POP POP DUP2 MSTORE PUSH1 0x20 ADD SWAP1 PUSH1 0x1 ADD SWAP1 PUSH2 0x11A0 JUMP JUMPDEST CALLER PUSH1 0x0 SWAP1 DUP2 MSTORE PUSH1 0x3 PUSH1 0x20 MSTORE PUSH1 0x40 SWAP1 KECCAK256 SLOAD PUSH1 0xFF AND PUSH2 0x12AB JUMPI PUSH1 0x40 MLOAD PUSH3 0x461BCD PUSH1 0xE5 SHL DUP2 MSTORE PUSH1 0x20 PUSH1 0x4 DUP3 ADD MSTORE PUSH1 0x1A PUSH1 0x24 DUP3 ADD MSTORE PUSH32 0x4E6F7420616E20617574686F72697A656420706861726D616379000000000000 PUSH1 0x44 DUP3 ADD MSTORE PUSH1 0x64 ADD PUSH2 0x43B JUMP JUMPDEST PUSH1 0x0 DUP2 GT DUP1 ISZERO PUSH2 0x12BD JUMPI POP PUSH1 0x0 SLOAD DUP2 GT ISZERO JUMPDEST PUSH2 0x12D9 JUMPI PUSH1 0x40 MLOAD PUSH3 0x461BCD PUSH1 0xE5 SHL DUP2 MSTORE PUSH1 0x4 ADD PUSH2 0x43B SWAP1 PUSH2 0x1A8B JUMP JUMPDEST PUSH1 0x0 DUP2 DUP2 MSTORE PUSH1 0x1 PUSH1 0x20 MSTORE PUSH1 0x40 SWAP1 KECCAK256 PUSH1 0x6 ADD SLOAD PUSH1 0xFF AND PUSH2 0x1331 JUMPI PUSH1 0x40 MLOAD PUSH3 0x461BCD PUSH1 0xE5 SHL DUP2 MSTORE PUSH1 0x20 PUSH1 0x4 DUP3 ADD MSTORE PUSH1 0x14 PUSH1 0x24 DUP3 ADD MSTORE PUSH20 0x24B73B30B634B210383932B9B1B934B83A34B7B7 PUSH1 0x61 SHL PUSH1 0x44 DUP3 ADD MSTORE PUSH1 0x64 ADD PUSH2 0x43B JUMP JUMPDEST PUSH1 0x0 DUP2 DUP2 MSTORE PUSH1 0x1 PUSH1 0x20 MSTORE PUSH1 0x40 SWAP1 KECCAK256 PUSH1 0x6 ADD SLOAD PUSH2 0x100 SWAP1 DIV PUSH1 0xFF AND ISZERO PUSH2 0x138C JUMPI PUSH1 0x40 MLOAD PUSH3 0x461BCD PUSH1 0xE5 SHL DUP2 MSTORE PUSH1 0x20 PUSH1 0x4 DUP3 ADD MSTORE PUSH1 0x11 PUSH1 0x24 DUP3 ADD MSTORE PUSH17 0x105B1C9958591E48191A5CDC195B9CD959 PUSH1 0x7A SHL PUSH1 0x44 DUP3 ADD MSTORE PUSH1 0x64 ADD PUSH2 0x43B JUMP JUMPDEST PUSH1 0x0 DUP2 DUP2 MSTORE PUSH1 0x1 PUSH1 0x20 SWAP1 DUP2 MSTORE PUSH1 0x40 SWAP2 DUP3 SWAP1 KECCAK256 PUSH1 0x6 DUP2 ADD DUP1 SLOAD PUSH3 0x10000 CALLER SWAP1 DUP2 MUL PUSH2 0x100 PUSH1 0x1 PUSH1 0xB0 SHL SUB NOT SWAP1 SWAP3 AND SWAP2 SWAP1 SWAP2 OR PUSH2 0x100 OR SWAP1 SWAP2 SSTORE TIMESTAMP PUSH1 0x7 SWAP1 SWAP3 ADD SWAP2 SWAP1 SWAP2 SSTORE DUP3 MLOAD DUP5 DUP2 MSTORE SWAP2 DUP3 ADD MSTORE PUSH32 0xCD763F1FF84F6F64899CA9DBFADB7BA5931C5F12587675542B3B5A036600758A SWAP2 ADD PUSH2 0x9CF JUMP JUMPDEST PUSH1 0x40 MLOAD DUP1 PUSH2 0x140 ADD PUSH1 0x40 MSTORE DUP1 PUSH1 0x0 DUP2 MSTORE PUSH1 0x20 ADD PUSH1 0x0 PUSH1 0x1 PUSH1 0x1 PUSH1 0xA0 SHL SUB AND DUP2 MSTORE PUSH1 0x20 ADD PUSH1 0x60 DUP2 MSTORE PUSH1 0x20 ADD PUSH1 0x60 DUP2 MSTORE PUSH1 0x20 ADD PUSH1 0x60 DUP2 MSTORE PUSH1 0x20 ADD PUSH1 0x60 DUP2 MSTORE PUSH1 0x20 ADD PUSH1 0x0 ISZERO ISZERO DUP2 MSTORE PUSH1 0x20 ADD PUSH1 0x0 ISZERO ISZERO DUP2 MSTORE PUSH1 0x20 ADD PUSH1 0x0 PUSH1 0x1 PUSH1 0x1 PUSH1 0xA0 SHL SUB AND DUP2 MSTORE PUSH1 0x20 ADD PUSH1 0x0 DUP2 MSTORE POP SWAP1 JUMP JUMPDEST DUP3 DUP1 SLOAD DUP3 DUP3 SSTORE SWAP1 PUSH1 0x0 MSTORE PUSH1 0x20 PUSH1 0x0 KECCAK256 SWAP1 DUP2 ADD SWAP3 DUP3 ISZERO PUSH2 0x14AE JUMPI SWAP2 PUSH1 0x20 MUL DUP3 ADD JUMPDEST DUP3 DUP2 GT ISZERO PUSH2 0x14AE JUMPI DUP3 MLOAD DUP3 SWAP1 PUSH2 0x149E SWAP1 DUP3 PUSH2 0x1B79 JUMP JUMPDEST POP SWAP2 PUSH1 0x20 ADD SWAP2 SWAP1 PUSH1 0x1 ADD SWAP1 PUSH2 0x1488 JUMP JUMPDEST POP PUSH2 0x14BA SWAP3 SWAP2 POP PUSH2 0x14BE JUMP JUMPDEST POP SWAP1 JUMP JUMPDEST DUP1 DUP3 GT ISZERO PUSH2 0x14BA JUMPI PUSH1 0x0 PUSH2 0x14D2 DUP3 DUP3 PUSH2 0x14DB JUMP JUMPDEST POP PUSH1 0x1 ADD PUSH2 0x14BE JUMP JUMPDEST POP DUP1 SLOAD PUSH2 0x14E7 SWAP1 PUSH2 0x1A51 JUMP JUMPDEST PUSH1 0x0 DUP3 SSTORE DUP1 PUSH1 0x1F LT PUSH2 0x14F7 JUMPI POP POP JUMP JUMPDEST PUSH1 0x1F ADD PUSH1 0x20 SWAP1 DIV SWAP1 PUSH1 0x0 MSTORE PUSH1 0x20 PUSH1 0x0 KECCAK256 SWAP1 DUP2 ADD SWAP1 PUSH2 0x1515 SWAP2 SWAP1 PUSH2 0x1518 JUMP JUMPDEST POP JUMP JUMPDEST JUMPDEST DUP1 DUP3 GT ISZERO PUSH2 0x14BA JUMPI PUSH1 0x0 DUP2 SSTORE PUSH1 0x1 ADD PUSH2 0x1519 JUMP JUMPDEST PUSH1 0x0 PUSH1 0x20 DUP3 DUP5 SUB SLT ISZERO PUSH2 0x153F JUMPI PUSH1 0x0 DUP1 REVERT JUMPDEST DUP2 CALLDATALOAD PUSH1 0x1 PUSH1 0x1 PUSH1 0xA0 SHL SUB DUP2 AND DUP2 EQ PUSH2 0x1556 JUMPI PUSH1 0x0 DUP1 REVERT JUMPDEST SWAP4 SWAP3 POP POP POP JUMP JUMPDEST PUSH1 0x0 PUSH1 0x20 DUP3 DUP5 SUB SLT ISZERO PUSH2 0x156F JUMPI PUSH1 0x0 DUP1 REVERT JUMPDEST POP CALLDATALOAD SWAP2 SWAP1 POP JUMP JUMPDEST PUSH1 0x0 DUP2 MLOAD DUP1 DUP5 MSTORE PUSH1 0x0 JUMPDEST DUP2 DUP2 LT ISZERO PUSH2 0x159C JUMPI PUSH1 0x20 DUP2 DUP6 ADD DUP2 ADD MLOAD DUP7 DUP4 ADD DUP3 ADD MSTORE ADD PUSH2 0x1580 JUMP JUMPDEST POP PUSH1 0x0 PUSH1 0x20 DUP3 DUP7 ADD ADD MSTORE PUSH1 0x20 PUSH1 0x1F NOT PUSH1 0x1F DUP4 ADD AND DUP6 ADD ADD SWAP2 POP POP SWAP3 SWAP2 POP POP JUMP JUMPDEST DUP9 DUP2 MSTORE PUSH1 0x1 PUSH1 0x1 PUSH1 0xA0 SHL SUB DUP9 AND PUSH1 0x20 DUP3 ADD MSTORE PUSH2 0x100 PUSH1 0x40 DUP3 ADD DUP2 SWAP1 MSTORE PUSH1 0x0 SWAP1 PUSH2 0x15E7 SWAP1 DUP4 ADD DUP10 PUSH2 0x1576 JUMP JUMPDEST DUP3 DUP2 SUB PUSH1 0x60 DUP5 ADD MSTORE PUSH2 0x15F9 DUP2 DUP10 PUSH2 0x1576 JUMP JUMPDEST SWAP7 ISZERO ISZERO PUSH1 0x80 DUP5 ADD MSTORE POP POP SWAP3 ISZERO ISZERO PUSH1 0xA0 DUP5 ADD MSTORE PUSH1 0x1 PUSH1 0x1 PUSH1 0xA0 SHL SUB SWAP2 SWAP1 SWAP2 AND PUSH1 0xC0 DUP4 ADD MSTORE PUSH1 0xE0 SWAP1 SWAP2 ADD MSTORE SWAP5 SWAP4 POP POP POP POP JUMP JUMPDEST PUSH1 0x0 DUP3 DUP3 MLOAD DUP1 DUP6 MSTORE PUSH1 0x20 DUP6 ADD SWAP5 POP PUSH1 0x20 DUP2 PUSH1 0x5 SHL DUP4 ADD ADD PUSH1 0x20 DUP6 ADD PUSH1 0x0 JUMPDEST DUP4 DUP2 LT ISZERO PUSH2 0x167A JUMPI PUSH1 0x1F NOT DUP6 DUP5 SUB ADD DUP9 MSTORE PUSH2 0x1664 DUP4 DUP4 MLOAD PUSH2 0x1576 JUMP JUMPDEST PUSH1 0x20 SWAP9 DUP10 ADD SWAP9 SWAP1 SWAP4 POP SWAP2 SWAP1 SWAP2 ADD SWAP1 PUSH1 0x1 ADD PUSH2 0x1648 JUMP JUMPDEST POP SWAP1 SWAP7 SWAP6 POP POP POP POP POP POP JUMP JUMPDEST DUP4 ISZERO ISZERO DUP2 MSTORE DUP3 ISZERO ISZERO PUSH1 0x20 DUP3 ADD MSTORE PUSH1 0x60 PUSH1 0x40 DUP3 ADD MSTORE DUP2 MLOAD PUSH1 0x60 DUP3 ADD MSTORE PUSH1 0x0 PUSH1 0x20 DUP4 ADD MLOAD PUSH2 0x16BD PUSH1 0x80 DUP5 ADD DUP3 PUSH1 0x1 PUSH1 0x1 PUSH1 0xA0 SHL SUB AND SWAP1 MSTORE JUMP JUMPDEST POP PUSH1 0x40 DUP4 ADD MLOAD PUSH2 0x140 PUSH1 0xA0 DUP5 ADD MSTORE PUSH2 0x16D9 PUSH2 0x1A0 DUP5 ADD DUP3 PUSH2 0x162A JUMP JUMPDEST SWAP1 POP PUSH1 0x60 DUP5 ADD MLOAD PUSH1 0x5F NOT DUP5 DUP4 SUB ADD PUSH1 0xC0 DUP6 ADD MSTORE PUSH2 0x16F6 DUP3 DUP3 PUSH2 0x162A JUMP JUMPDEST SWAP2 POP POP PUSH1 0x80 DUP5 ADD MLOAD PUSH1 0x5F NOT DUP5 DUP4 SUB ADD PUSH1 0xE0 DUP6 ADD MSTORE PUSH2 0x1714 DUP3 DUP3 PUSH2 0x1576 JUMP JUMPDEST SWAP2 POP POP PUSH1 0xA0 DUP5 ADD MLOAD PUSH1 0x5F NOT DUP5 DUP4 SUB ADD PUSH2 0x100 DUP6 ADD MSTORE PUSH2 0x1733 DUP3 DUP3 PUSH2 0x1576 JUMP JUMPDEST SWAP2 POP POP PUSH1 0xC0 DUP5 ADD MLOAD PUSH2 0x174A PUSH2 0x120 DUP6 ADD DUP3 ISZERO ISZERO SWAP1 MSTORE JUMP JUMPDEST POP PUSH1 0xE0 DUP5 ADD MLOAD ISZERO ISZERO PUSH2 0x140 DUP5 ADD MSTORE PUSH2 0x100 DUP5 ADD MLOAD PUSH1 0x1 PUSH1 0x1 PUSH1 0xA0 SHL SUB AND PUSH2 0x160 DUP5 ADD MSTORE PUSH2 0x120 SWAP1 SWAP4 ADD MLOAD PUSH2 0x180 SWAP1 SWAP3 ADD SWAP2 SWAP1 SWAP2 MSTORE POP SWAP3 SWAP2 POP POP JUMP JUMPDEST DUP11 DUP2 MSTORE PUSH1 0x1 PUSH1 0x1 PUSH1 0xA0 SHL SUB DUP11 AND PUSH1 0x20 DUP3 ADD MSTORE PUSH2 0x140 PUSH1 0x40 DUP3 ADD DUP2 SWAP1 MSTORE PUSH1 0x0 SWAP1 PUSH2 0x17B0 SWAP1 DUP4 ADD DUP12 PUSH2 0x162A JUMP JUMPDEST DUP3 DUP2 SUB PUSH1 0x60 DUP5 ADD MSTORE PUSH2 0x17C2 DUP2 DUP12 PUSH2 0x162A JUMP JUMPDEST SWAP1 POP DUP3 DUP2 SUB PUSH1 0x80 DUP5 ADD MSTORE PUSH2 0x17D6 DUP2 DUP11 PUSH2 0x1576 JUMP JUMPDEST SWAP1 POP DUP3 DUP2 SUB PUSH1 0xA0 DUP5 ADD MSTORE PUSH2 0x17EA DUP2 DUP10 PUSH2 0x1576 JUMP JUMPDEST SWAP7 ISZERO ISZERO PUSH1 0xC0 DUP5 ADD MSTORE POP POP SWAP3 ISZERO ISZERO PUSH1 0xE0 DUP5 ADD MSTORE PUSH1 0x1 PUSH1 0x1 PUSH1 0xA0 SHL SUB SWAP2 SWAP1 SWAP2 AND PUSH2 0x100 DUP4 ADD MSTORE PUSH2 0x120 SWAP1 SWAP2 ADD MSTORE SWAP7 SWAP6 POP POP POP POP POP POP JUMP JUMPDEST PUSH1 0x20 DUP2 MSTORE PUSH1 0x0 PUSH2 0x1556 PUSH1 0x20 DUP4 ADD DUP5 PUSH2 0x162A JUMP JUMPDEST PUSH4 0x4E487B71 PUSH1 0xE0 SHL PUSH1 0x0 MSTORE PUSH1 0x41 PUSH1 0x4 MSTORE PUSH1 0x24 PUSH1 0x0 REVERT JUMPDEST PUSH1 0x40 MLOAD PUSH1 0x1F DUP3 ADD PUSH1 0x1F NOT AND DUP2 ADD PUSH8 0xFFFFFFFFFFFFFFFF DUP2 GT DUP3 DUP3 LT OR ISZERO PUSH2 0x1871 JUMPI PUSH2 0x1871 PUSH2 0x1832 JUMP JUMPDEST PUSH1 0x40 MSTORE SWAP2 SWAP1 POP JUMP JUMPDEST PUSH1 0x0 DUP3 PUSH1 0x1F DUP4 ADD SLT PUSH2 0x188A JUMPI PUSH1 0x0 DUP1 REVERT JUMPDEST DUP2 CALLDATALOAD PUSH8 0xFFFFFFFFFFFFFFFF DUP2 GT ISZERO PUSH2 0x18A4 JUMPI PUSH2 0x18A4 PUSH2 0x1832 JUMP JUMPDEST PUSH2 0x18B7 PUSH1 0x1F DUP3 ADD PUSH1 0x1F NOT AND PUSH1 0x20 ADD PUSH2 0x1848 JUMP JUMPDEST DUP2 DUP2 MSTORE DUP5 PUSH1 0x20 DUP4 DUP7 ADD ADD GT ISZERO PUSH2 0x18CC JUMPI PUSH1 0x0 DUP1 REVERT JUMPDEST DUP2 PUSH1 0x20 DUP6 ADD PUSH1 0x20 DUP4 ADD CALLDATACOPY PUSH1 0x0 SWAP2 DUP2 ADD PUSH1 0x20 ADD SWAP2 SWAP1 SWAP2 MSTORE SWAP4 SWAP3 POP POP POP JUMP JUMPDEST PUSH1 0x0 DUP3 PUSH1 0x1F DUP4 ADD SLT PUSH2 0x18FA JUMPI PUSH1 0x0 DUP1 REVERT JUMPDEST DUP2 CALLDATALOAD PUSH8 0xFFFFFFFFFFFFFFFF DUP2 GT ISZERO PUSH2 0x1914 JUMPI PUSH2 0x1914 PUSH2 0x1832 JUMP JUMPDEST DUP1 PUSH1 0x5 SHL PUSH2 0x1924 PUSH1 0x20 DUP3 ADD PUSH2 0x1848 JUMP JUMPDEST SWAP2 DUP3 MSTORE PUSH1 0x20 DUP2 DUP6 ADD DUP2 ADD SWAP3 SWAP1 DUP2 ADD SWAP1 DUP7 DUP5 GT ISZERO PUSH2 0x1940 JUMPI PUSH1 0x0 DUP1 REVERT JUMPDEST PUSH1 0x20 DUP7 ADD SWAP3 POP JUMPDEST DUP4 DUP4 LT ISZERO PUSH2 0x1987 JUMPI DUP3 CALLDATALOAD PUSH8 0xFFFFFFFFFFFFFFFF DUP2 GT ISZERO PUSH2 0x1966 JUMPI PUSH1 0x0 DUP1 REVERT JUMPDEST PUSH2 0x1975 DUP9 PUSH1 0x20 DUP4 DUP11 ADD ADD PUSH2 0x1879 JUMP JUMPDEST DUP4 MSTORE POP PUSH1 0x20 SWAP3 DUP4 ADD SWAP3 SWAP1 SWAP2 ADD SWAP1 PUSH2 0x1947 JUMP JUMPDEST SWAP7 SWAP6 POP POP POP POP POP POP JUMP JUMPDEST PUSH1 0x0 DUP1 PUSH1 0x0 DUP1 PUSH1 0x80 DUP6 DUP8 SUB SLT ISZERO PUSH2 0x19A7 JUMPI PUSH1 0x0 DUP1 REVERT JUMPDEST DUP5 CALLDATALOAD PUSH8 0xFFFFFFFFFFFFFFFF DUP2 GT ISZERO PUSH2 0x19BE JUMPI PUSH1 0x0 DUP1 REVERT JUMPDEST PUSH2 0x19CA DUP8 DUP3 DUP9 ADD PUSH2 0x18E9 JUMP JUMPDEST SWAP5 POP POP PUSH1 0x20 DUP6 ADD CALLDATALOAD PUSH8 0xFFFFFFFFFFFFFFFF DUP2 GT ISZERO PUSH2 0x19E7 JUMPI PUSH1 0x0 DUP1 REVERT JUMPDEST PUSH2 0x19F3 DUP8 DUP3 DUP9 ADD PUSH2 0x18E9 JUMP JUMPDEST SWAP4 POP POP PUSH1 0x40 DUP6 ADD CALLDATALOAD PUSH8 0xFFFFFFFFFFFFFFFF DUP2 GT ISZERO PUSH2 0x1A10 JUMPI PUSH1 0x0 DUP1 REVERT JUMPDEST PUSH2 0x1A1C DUP8 DUP3 DUP9 ADD PUSH2 0x1879 JUMP JUMPDEST SWAP3 POP POP PUSH1 0x60 DUP6 ADD CALLDATALOAD PUSH8 0xFFFFFFFFFFFFFFFF DUP2 GT ISZERO PUSH2 0x1A39 JUMPI PUSH1 0x0 DUP1 REVERT JUMPDEST PUSH2 0x1A45 DUP8 DUP3 DUP9 ADD PUSH2 0x1879 JUMP JUMPDEST SWAP2 POP POP SWAP3 SWAP6 SWAP2 SWAP5 POP SWAP3 POP JUMP JUMPDEST PUSH1 0x1 DUP2 DUP2 SHR SWAP1 DUP3 AND DUP1 PUSH2 0x1A65 JUMPI PUSH1 0x7F DUP3 AND SWAP2 POP JUMPDEST PUSH1 0x20 DUP3 LT DUP2 SUB PUSH2 0x1A85 JUMPI PUSH4 0x4E487B71 PUSH1 0xE0 SHL PUSH1 0x0 MSTORE PUSH1 0x22 PUSH1 0x4 MSTORE PUSH1 0x24 PUSH1 0x0 REVERT JUMPDEST POP SWAP2 SWAP1 POP JUMP JUMPDEST PUSH1 0x20 DUP1 DUP3 MSTORE PUSH1 0x17 SWAP1 DUP3 ADD MSTORE PUSH32 0x496E76616C696420707265736372697074696F6E204944000000000000000000 PUSH1 0x40 DUP3 ADD MSTORE PUSH1 0x60 ADD SWAP1 JUMP JUMPDEST PUSH1 0x20 DUP1 DUP3 MSTORE PUSH1 0x21 SWAP1 DUP3 ADD MSTORE PUSH32 0x4F6E6C792061646D696E2063616E2063616C6C20746869732066756E6374696F PUSH1 0x40 DUP3 ADD MSTORE PUSH1 0x37 PUSH1 0xF9 SHL PUSH1 0x60 DUP3 ADD MSTORE PUSH1 0x80 ADD SWAP1 JUMP JUMPDEST PUSH1 0x0 PUSH1 0x1 DUP3 ADD PUSH2 0x1B23 JUMPI PUSH4 0x4E487B71 PUSH1 0xE0 SHL PUSH1 0x0 MSTORE PUSH1 0x11 PUSH1 0x4 MSTORE PUSH1 0x24 PUSH1 0x0 REVERT JUMPDEST POP PUSH1 0x1 ADD SWAP1 JUMP JUMPDEST PUSH1 0x1F DUP3 GT ISZERO PUSH2 0x1B74 JUMPI DUP1 PUSH1 0x0 MSTORE PUSH1 0x20 PUSH1 0x0 KECCAK256 PUSH1 0x1F DUP5 ADD PUSH1 0x5 SHR DUP2 ADD PUSH1 0x20 DUP6 LT ISZERO PUSH2 0x1B51 JUMPI POP DUP1 JUMPDEST PUSH1 0x1F DUP5 ADD PUSH1 0x5 SHR DUP3 ADD SWAP2 POP JUMPDEST DUP2 DUP2 LT ISZERO PUSH2 0x1B71 JUMPI PUSH1 0x0 DUP2 SSTORE PUSH1 0x1 ADD PUSH2 0x1B5D JUMP JUMPDEST POP POP JUMPDEST POP POP POP JUMP JUMPDEST DUP2 MLOAD PUSH8 0xFFFFFFFFFFFFFFFF DUP2 GT ISZERO PUSH2 0x1B93 JUMPI PUSH2 0x1B93 PUSH2 0x1832 JUMP JUMPDEST PUSH2 0x1BA7 DUP2 PUSH2 0x1BA1 DUP5 SLOAD PUSH2 0x1A51 JUMP JUMPDEST DUP5 PUSH2 0x1B2A JUMP JUMPDEST PUSH1 0x20 PUSH1 0x1F DUP3 GT PUSH1 0x1 DUP2 EQ PUSH2 0x1BDB JUMPI PUSH1 0x0 DUP4 ISZERO PUSH2 0x1BC3 JUMPI POP DUP5 DUP3 ADD MLOAD JUMPDEST PUSH1 0x0 NOT PUSH1 0x3 DUP6 SWAP1 SHL SHR NOT AND PUSH1 0x1 DUP5 SWAP1 SHL OR DUP5 SSTORE PUSH2 0x1B71 JUMP JUMPDEST PUSH1 0x0 DUP5 DUP2 MSTORE PUSH1 0x20 DUP2 KECCAK256 PUSH1 0x1F NOT DUP6 AND SWAP2 JUMPDEST DUP3 DUP2 LT ISZERO PUSH2 0x1C0B JUMPI DUP8 DUP6 ADD MLOAD DUP3 SSTORE PUSH1 0x20 SWAP5 DUP6 ADD SWAP5 PUSH1 0x1 SWAP1 SWAP3 ADD SWAP2 ADD PUSH2 0x1BEB JUMP JUMPDEST POP DUP5 DUP3 LT ISZERO PUSH2 0x1C29 JUMPI DUP7 DUP5 ADD MLOAD PUSH1 0x0 NOT PUSH1 0x3 DUP8 SWAP1 SHL PUSH1 0xF8 AND SHR NOT AND DUP2 SSTORE JUMPDEST POP POP POP POP PUSH1 0x1 SWAP1 DUP2 SHL ADD SWAP1 SSTORE POP JUMP INVALID LOG2 PUSH5 0x6970667358 0x22 SLT KECCAK256 SUB CHAINID DELEGATECALL TSTORE 0xE3 0xC3 0xD5 BALANCE DUP6 JUMPDEST MULMOD 0x4D DUP11 0xE8 PUSH16 0x541CA0B76239DC81D566BE710B0594DB 0xBB PUSH5 0x736F6C6343 STOP ADDMOD SHR STOP CALLER "},"methodIdentifiers":{"admin()":"f851a440","authorizeDoctor(address)":"58c9202c","authorizePharmacy(address)":"9d45cae5","authorizedDoctors(address)":"2d3975f0","authorizedPharmacies(address)":"1f4baa61","dispensePrescription(uint256)":"f115d955","getPrescriptionBasicInfo(uint256)":"3feb9003","getPrescriptionDetails(uint256)":"5e189509","getPrescriptionDosages(uint256)":"c824e4c6","getPrescriptionMedicines(uint256)":"a219741b","issuePrescription(string[],string[],string,string)":"ab0101dd","prescriptionCount()":"b6558498","prescriptions(uint256)":"31dfc91b","verifyPrescription(uint256)":"581f8765"}}}}}