{
  "_format": "hh-sol-artifact-1",
  "contractName": "PrescriptionRegistry",
  "sourceName": "contracts/PrescriptionRegistry.sol",
  "abi": [
    {
      "inputs": [],
      "stateMutability": "nonpayable",
      "type": "constructor"
    },
    {
      "anonymous": false,
      "inputs": [
        {
          "indexed": false,
          "internalType": "address",
          "name": "doctor",
          "type": "address"
        }
      ],
      "name": "DoctorAuthorized",
      "type": "event"
    },
    {
      "anonymous": false,
      "inputs": [
        {
          "indexed": false,
          "internalType": "address",
          "name": "pharmacy",
          "type": "address"
        }
      ],
      "name": "PharmacyAuthorized",
      "type": "event"
    },
    {
      "anonymous": false,
      "inputs": [
        {
          "indexed": false,
          "internalType": "uint256",
          "name": "id",
          "type": "uint256"
        },
        {
          "indexed": false,
          "internalType": "address",
          "name": "pharmacy",
          "type": "address"
        }
      ],
      "name": "PrescriptionDispensed",
      "type": "event"
    },
    {
      "anonymous": false,
      "inputs": [
        {
          "indexed": false,
          "internalType": "uint256",
          "name": "id",
          "type": "uint256"
        },
        {
          "indexed": false,
          "internalType": "address",
          "name": "doctor",
          "type": "address"
        }
      ],
      "name": "PrescriptionIssued",
      "type": "event"
    },
    {
      "inputs": [],
      "name": "admin",
      "outputs": [
        {
          "internalType": "address",
          "name": "",
          "type": "address"
        }
      ],
      "stateMutability": "view",
      "type": "function"
    },
    {
      "inputs": [
        {
          "internalType": "address",
          "name": "_doctor",
          "type": "address"
        }
      ],
      "name": "authorizeDoctor",
      "outputs": [],
      "stateMutability": "nonpayable",
      "type": "function"
    },
    {
      "inputs": [
        {
          "internalType": "address",
          "name": "_pharmacy",
          "type": "address"
        }
      ],
      "name": "authorizePharmacy",
      "outputs": [],
      "stateMutability": "nonpayable",
      "type": "function"
    },
    {
      "inputs": [
        {
          "internalType": "address",
          "name": "",
          "type": "address"
        }
      ],
      "name": "authorizedDoctors",
      "outputs": [
        {
          "internalType": "bool",
          "name": "",
          "type": "bool"
        }
      ],
      "stateMutability": "view",
      "type": "function"
    },
    {
      "inputs": [
        {
          "internalType": "address",
          "name": "",
          "type": "address"
        }
      ],
      "name": "authorizedPharmacies",
      "outputs": [
        {
          "internalType": "bool",
          "name": "",
          "type": "bool"
        }
      ],
      "stateMutability": "view",
      "type": "function"
    },
    {
      "inputs": [
        {
          "internalType": "uint256",
          "name": "_id",
          "type": "uint256"
        }
      ],
      "name": "dispensePrescription",
      "outputs": [],
      "stateMutability": "nonpayable",
      "type": "function"
    },
    {
      "inputs": [
        {
          "internalType": "uint256",
          "name": "_id",
          "type": "uint256"
        }
      ],
      "name": "getPrescriptionBasicInfo",
      "outputs": [
        {
          "internalType": "uint256",
          "name": "id",
          "type": "uint256"
        },
        {
          "internalType": "address",
          "name": "doctor",
          "type": "address"
        },
        {
          "internalType": "string",
          "name": "consultationDate",
          "type": "string"
        },
        {
          "internalType": "string",
          "name": "expiryDate",
          "type": "string"
        },
        {
          "internalType": "bool",
          "name": "valid",
          "type": "bool"
        },
        {
          "internalType": "bool",
          "name": "dispensed",
          "type": "bool"
        },
        {
          "internalType": "address",
          "name": "dispensedBy",
          "type": "address"
        },
        {
          "internalType": "uint256",
          "name": "dispensedAt",
          "type": "uint256"
        }
      ],
      "stateMutability": "view",
      "type": "function"
    },
    {
      "inputs": [
        {
          "internalType": "uint256",
          "name": "_id",
          "type": "uint256"
        }
      ],
      "name": "getPrescriptionDetails",
      "outputs": [
        {
          "internalType": "uint256",
          "name": "id",
          "type": "uint256"
        },
        {
          "internalType": "address",
          "name": "doctor",
          "type": "address"
        },
        {
          "internalType": "string[]",
          "name": "medicines",
          "type": "string[]"
        },
        {
          "internalType": "string[]",
          "name": "dosages",
          "type": "string[]"
        },
        {
          "internalType": "string",
          "name": "consultationDate",
          "type": "string"
        },
        {
          "internalType": "string",
          "name": "expiryDate",
          "type": "string"
        },
        {
          "internalType": "bool",
          "name": "valid",
          "type": "bool"
        },
        {
          "internalType": "bool",
          "name": "dispensed",
          "type": "bool"
        },
        {
          "internalType": "address",
          "name": "dispensedBy",
          "type": "address"
        },
        {
          "internalType": "uint256",
          "name": "dispensedAt",
          "type": "uint256"
        }
      ],
      "stateMutability": "view",
      "type": "function"
    },
    {
      "inputs": [
        {
          "internalType": "uint256",
          "name": "_id",
          "type": "uint256"
        }
      ],
      "name": "getPrescriptionDosages",
      "outputs": [
        {
          "internalType": "string[]",
          "name": "",
          "type": "string[]"
        }
      ],
      "stateMutability": "view",
      "type": "function"
    },
    {
      "inputs": [
        {
          "internalType": "uint256",
          "name": "_id",
          "type": "uint256"
        }
      ],
      "name": "getPrescriptionMedicines",
      "outputs": [
        {
          "internalType": "string[]",
          "name": "",
          "type": "string[]"
        }
      ],
      "stateMutability": "view",
      "type": "function"
    },
    {
      "inputs": [
        {
          "internalType": "string[]",
          "name": "_medicines",
          "type": "string[]"
        },
        {
          "internalType": "string[]",
          "name": "_dosages",
          "type": "string[]"
        },
        {
          "internalType": "string",
          "name": "_consultationDate",
          "type": "string"
        },
        {
          "internalType": "string",
          "name": "_expiryDate",
          "type": "string"
        }
      ],
      "name": "issuePrescription",
      "outputs": [
        {
          "internalType": "uint256",
          "name": "",
          "type": "uint256"
        }
      ],
      "stateMutability": "nonpayable",
      "type": "function"
    },
    {
      "inputs": [],
      "name": "prescriptionCount",
      "outputs": [
        {
          "internalType": "uint256",
          "name": "",
          "type": "uint256"
        }
      ],
      "stateMutability": "view",
      "type": "function"
    },
    {
      "inputs": [
        {
          "internalType": "uint256",
          "name": "",
          "type": "uint256"
        }
      ],
      "name": "prescriptions",
      "outputs": [
        {
          "internalType": "uint256",
          "name": "id",
          "type": "uint256"
        },
        {
          "internalType": "address",
          "name": "doctor",
          "type": "address"
        },
        {
          "internalType": "string",
          "name": "consultationDate",
          "type": "string"
        },
        {
          "internalType": "string",
          "name": "expiryDate",
          "type": "string"
        },
        {
          "internalType": "bool",
          "name": "valid",
          "type": "bool"
        },
        {
          "internalType": "bool",
          "name": "dispensed",
          "type": "bool"
        },
        {
          "internalType": "address",
          "name": "dispensedBy",
          "type": "address"
        },
        {
          "internalType": "uint256",
          "name": "dispensedAt",
          "type": "uint256"
        }
      ],
      "stateMutability": "view",
      "type": "function"
    },
    {
      "inputs": [
        {
          "internalType": "uint256",
          "name": "_id",
          "type": "uint256"
        }
      ],
      "name": "verifyPrescription",
      "outputs": [
        {
          "internalType": "bool",
          "name": "",
          "type": "bool"
        },
        {
          "internalType": "bool",
          "name": "",
          "type": "bool"
        },
        {
          "components": [
            {
              "internalType": "uint256",
              "name": "id",
              "type": "uint256"
            },
            {
              "internalType": "address",
              "name": "doctor",
              "type": "address"
            },
            {
              "internalType": "string[]",
              "name": "medicines",
              "type": "string[]"
            },
            {
              "internalType": "string[]",
              "name": "dosages",
              "type": "string[]"
            },
            {
              "internalType": "string",
              "name": "consultationDate",
              "type": "string"
            },
            {
              "internalType": "string",
              "name": "expiryDate",
              "type": "string"
            },
            {
              "internalType": "bool",
              "name": "valid",
              "type": "bool"
            },
            {
              "internalType": "bool",
              "name": "dispensed",
              "type": "bool"
            },
            {
              "internalType": "address",
              "name": "dispensedBy",
              "type": "address"
            },
            {
              "internalType": "uint256",
              "name": "dispensedAt",
              "type": "uint256"
            }
          ],
          "internalType": "struct PrescriptionRegistry.Prescription",
          "name": "",
          "type": "tuple"
        }
      ],
      "stateMutability": "view",
      "type": "function"
    }
  ],
  "bytecode": "0x6080604052348015600f57600080fd5b50600480546001600160a01b03191633179055611c6e806100316000396000f3fe608060405234801561001057600080fd5b50600436106100ea5760003560e01c80639d45cae51161008c578063b655849811610066578063b655849814610238578063c824e4c614610241578063f115d95514610254578063f851a4401461026757600080fd5b80639d45cae5146101e4578063a219741b146101f7578063ab0101dd1461021757600080fd5b80633feb9003116100c85780633feb900314610171578063581f87651461018457806358c9202c146101a65780635e189509146101bb57600080fd5b80631f4baa61146100ef5780632d3975f01461012757806331dfc91b1461014a575b600080fd5b6101126100fd36600461152d565b60036020526000908152604090205460ff1681565b60405190151581526020015b60405180910390f35b61011261013536600461152d565b60026020526000908152604090205460ff1681565b61015d61015836600461155d565b610292565b60405161011e9897969594939291906115bc565b61015d61017f36600461155d565b610401565b61019761019236600461155d565b6105cc565b60405161011e93929190611686565b6101b96101b436600461152d565b610956565b005b6101ce6101c936600461155d565b6109da565b60405161011e9a99989796959493929190611785565b6101b96101f236600461152d565b610d4f565b61020a61020536600461155d565b610dcd565b60405161011e919061181f565b61022a610225366004611991565b610ee0565b60405190815260200161011e565b61022a60005481565b61020a61024f36600461155d565b611144565b6101b961026236600461155d565b61124c565b60045461027a906001600160a01b031681565b6040516001600160a01b03909116815260200161011e565b60016020819052600091825260409091208054918101546004820180546001600160a01b0390921692916102c590611a51565b80601f01602080910402602001604051908101604052809291908181526020018280546102f190611a51565b801561033e5780601f106103135761010080835404028352916020019161033e565b820191906000526020600020905b81548152906001019060200180831161032157829003601f168201915b50505050509080600501805461035390611a51565b80601f016020809104026020016040519081016040528092919081815260200182805461037f90611a51565b80156103cc5780601f106103a1576101008083540402835291602001916103cc565b820191906000526020600020905b8154815290600101906020018083116103af57829003601f168201915b505050506006830154600790930154919260ff8082169361010083049091169250620100009091046001600160a01b03169088565b60008060608060008060008060008911801561041f57506000548911155b6104445760405162461bcd60e51b815260040161043b90611a8b565b60405180910390fd5b6000898152600160208190526040909120805491810154600682015460078301546004840180549495946001600160a01b03948516949193600588019360ff8083169461010084049091169362010000909304169186906104a490611a51565b80601f01602080910402602001604051908101604052809291908181526020018280546104d090611a51565b801561051d5780601f106104f25761010080835404028352916020019161051d565b820191906000526020600020905b81548152906001019060200180831161050057829003601f168201915b5050505050955084805461053090611a51565b80601f016020809104026020016040519081016040528092919081815260200182805461055c90611a51565b80156105a95780601f1061057e576101008083540402835291602001916105a9565b820191906000526020600020905b81548152906001019060200180831161058c57829003601f168201915b505050505094509850985098509850985098509850985050919395975091939597565b6000806105d76113ff565b8315806105e5575060005484115b15610600576105f26113ff565b60009350839250905061094f565b600084815260016020818152604080842081516101408101835281548152938101546001600160a01b0316848401526002810180548351818602810186018552818152929493860193879084015b828210156106fa57838290600052602060002001805461066d90611a51565b80601f016020809104026020016040519081016040528092919081815260200182805461069990611a51565b80156106e65780601f106106bb576101008083540402835291602001916106e6565b820191906000526020600020905b8154815290600101906020018083116106c957829003601f168201915b50505050508152602001906001019061064e565b50505050815260200160038201805480602002602001604051908101604052809291908181526020016000905b828210156107d357838290600052602060002001805461074690611a51565b80601f016020809104026020016040519081016040528092919081815260200182805461077290611a51565b80156107bf5780601f10610794576101008083540402835291602001916107bf565b820191906000526020600020905b8154815290600101906020018083116107a257829003601f168201915b505050505081526020019060010190610727565b5050505081526020016004820180546107eb90611a51565b80601f016020809104026020016040519081016040528092919081815260200182805461081790611a51565b80156108645780601f1061083957610100808354040283529160200191610864565b820191906000526020600020905b81548152906001019060200180831161084757829003601f168201915b5050505050815260200160058201805461087d90611a51565b80601f01602080910402602001604051908101604052809291908181526020018280546108a990611a51565b80156108f65780601f106108cb576101008083540402835291602001916108f6565b820191906000526020600020905b8154815290600101906020018083116108d957829003601f168201915b5050509183525050600682015460ff80821615156020840152610100820416151560408301526201000090046001600160a01b0316606082015260079091015460809091015260c081015160e082015190955093509150505b9193909250565b6004546001600160a01b031633146109805760405162461bcd60e51b815260040161043b90611ac2565b6001600160a01b038116600081815260026020908152604091829020805460ff1916600117905590519182527ea8f5cec2bb2e273b1757cce595776dacdc60b8c5245756d69fa2bd0b2833cc91015b60405180910390a150565b60008060608060608060008060008060008b1180156109fb57506000548b11155b610a175760405162461bcd60e51b815260040161043b90611a8b565b60008b81526001602081815260408084208054938101546006820154600783015460028401805486518189028101890190975280875294986001600160a01b0394851697919660038b019660048c019660058d019660ff8082169761010083049091169662010000909204909216949193928b92909184015b82821015610b3c578382906000526020600020018054610aaf90611a51565b80601f0160208091040260200160405190810160405280929190818152602001828054610adb90611a51565b8015610b285780601f10610afd57610100808354040283529160200191610b28565b820191906000526020600020905b815481529060010190602001808311610b0b57829003601f168201915b505050505081526020019060010190610a90565b50505050975086805480602002602001604051908101604052809291908181526020016000905b82821015610c0f578382906000526020600020018054610b8290611a51565b80601f0160208091040260200160405190810160405280929190818152602001828054610bae90611a51565b8015610bfb5780601f10610bd057610100808354040283529160200191610bfb565b820191906000526020600020905b815481529060010190602001808311610bde57829003601f168201915b505050505081526020019060010190610b63565b505050509650858054610c2190611a51565b80601f0160208091040260200160405190810160405280929190818152602001828054610c4d90611a51565b8015610c9a5780601f10610c6f57610100808354040283529160200191610c9a565b820191906000526020600020905b815481529060010190602001808311610c7d57829003601f168201915b50505050509550848054610cad90611a51565b80601f0160208091040260200160405190810160405280929190818152602001828054610cd990611a51565b8015610d265780601f10610cfb57610100808354040283529160200191610d26565b820191906000526020600020905b815481529060010190602001808311610d0957829003601f168201915b505050505094509a509a509a509a509a509a509a509a509a509a50509193959799509193959799565b6004546001600160a01b03163314610d795760405162461bcd60e51b815260040161043b90611ac2565b6001600160a01b038116600081815260036020908152604091829020805460ff1916600117905590519182527fe92112c045a39aca7cd24e843e336f05c4282fcce0b95a92607b48ca2562c27f91016109cf565b6060600082118015610de157506000548211155b610dfd5760405162461bcd60e51b815260040161043b90611a8b565b600082815260016020908152604080832060020180548251818502810185019093528083529193909284015b82821015610ed5578382906000526020600020018054610e4890611a51565b80601f0160208091040260200160405190810160405280929190818152602001828054610e7490611a51565b8015610ec15780601f10610e9657610100808354040283529160200191610ec1565b820191906000526020600020905b815481529060010190602001808311610ea457829003601f168201915b505050505081526020019060010190610e29565b505050509050919050565b3360009081526002602052604081205460ff16610f3f5760405162461bcd60e51b815260206004820152601860248201527f4e6f7420616e20617574686f72697a656420646f63746f720000000000000000604482015260640161043b565b8351855114610f9e5760405162461bcd60e51b815260206004820152602560248201527f4d65646963696e657320616e6420646f7361676573206c656e677468206d69736044820152640dac2e8c6d60db1b606482015260840161043b565b600080549080610fad83611b03565b90915550506040805161014081018252600080548083523360208085019182528486018b8152606086018b9052608086018a905260a08601899052600160c0870181905260e08701869052610100870186905261012087018690529385528382529590932084518155905191810180546001600160a01b0319166001600160a01b0390931692909217909155925180519293926110509260028501920190611468565b506060820151805161106c916003840191602090910190611468565b50608082015160048201906110819082611b79565b5060a082015160058201906110969082611b79565b5060c082015160068201805460e08501516101008087015161ffff1990931694151561ff001916949094179015159093029290921762010000600160b01b031916620100006001600160a01b039093169290920291909117905561012090910151600790910155600054604080519182523360208301527fcf449e5e117e98daf8940ca4eaefbd9df0d1891b867767f86a57dbfb0fbdc846910160405180910390a150600054949350505050565b606060008211801561115857506000548211155b6111745760405162461bcd60e51b815260040161043b90611a8b565b600082815260016020908152604080832060030180548251818502810185019093528083529193909284015b82821015610ed55783829060005260206000200180546111bf90611a51565b80601f01602080910402602001604051908101604052809291908181526020018280546111eb90611a51565b80156112385780601f1061120d57610100808354040283529160200191611238565b820191906000526020600020905b81548152906001019060200180831161121b57829003601f168201915b5050505050815260200190600101906111a0565b3360009081526003602052604090205460ff166112ab5760405162461bcd60e51b815260206004820152601a60248201527f4e6f7420616e20617574686f72697a656420706861726d616379000000000000604482015260640161043b565b6000811180156112bd57506000548111155b6112d95760405162461bcd60e51b815260040161043b90611a8b565b60008181526001602052604090206006015460ff166113315760405162461bcd60e51b815260206004820152601460248201527324b73b30b634b210383932b9b1b934b83a34b7b760611b604482015260640161043b565b600081815260016020526040902060060154610100900460ff161561138c5760405162461bcd60e51b8152602060048201526011602482015270105b1c9958591e48191a5cdc195b9cd959607a1b604482015260640161043b565b6000818152600160209081526040918290206006810180546201000033908102610100600160b01b03199092169190911761010017909155426007909201919091558251848152918201527fcd763f1ff84f6f64899ca9dbfadb7ba5931c5f12587675542b3b5a036600758a91016109cf565b6040518061014001604052806000815260200160006001600160a01b031681526020016060815260200160608152602001606081526020016060815260200160001515815260200160001515815260200160006001600160a01b03168152602001600081525090565b8280548282559060005260206000209081019282156114ae579160200282015b828111156114ae578251829061149e9082611b79565b5091602001919060010190611488565b506114ba9291506114be565b5090565b808211156114ba5760006114d282826114db565b506001016114be565b5080546114e790611a51565b6000825580601f106114f7575050565b601f0160209004906000526020600020908101906115159190611518565b50565b5b808211156114ba5760008155600101611519565b60006020828403121561153f57600080fd5b81356001600160a01b038116811461155657600080fd5b9392505050565b60006020828403121561156f57600080fd5b5035919050565b6000815180845260005b8181101561159c57602081850181015186830182015201611580565b506000602082860101526020601f19601f83011685010191505092915050565b8881526001600160a01b0388166020820152610100604082018190526000906115e790830189611576565b82810360608401526115f98189611576565b9615156080840152505092151560a08401526001600160a01b039190911660c083015260e090910152949350505050565b600082825180855260208501945060208160051b8301016020850160005b8381101561167a57601f19858403018852611664838351611576565b6020988901989093509190910190600101611648565b50909695505050505050565b831515815282151560208201526060604082015281516060820152600060208301516116bd60808401826001600160a01b03169052565b50604083015161014060a08401526116d96101a084018261162a565b90506060840151605f198483030160c08501526116f6828261162a565b9150506080840151605f198483030160e08501526117148282611576565b91505060a0840151605f19848303016101008501526117338282611576565b91505060c084015161174a61012085018215159052565b5060e084015115156101408401526101008401516001600160a01b031661016084015261012090930151610180909201919091525092915050565b8a81526001600160a01b038a166020820152610140604082018190526000906117b09083018b61162a565b82810360608401526117c2818b61162a565b905082810360808401526117d6818a611576565b905082810360a08401526117ea8189611576565b96151560c0840152505092151560e08401526001600160a01b0391909116610100830152610120909101529695505050505050565b602081526000611556602083018461162a565b634e487b7160e01b600052604160045260246000fd5b604051601f8201601f1916810167ffffffffffffffff8111828210171561187157611871611832565b604052919050565b600082601f83011261188a57600080fd5b813567ffffffffffffffff8111156118a4576118a4611832565b6118b7601f8201601f1916602001611848565b8181528460208386010111156118cc57600080fd5b816020850160208301376000918101602001919091529392505050565b600082601f8301126118fa57600080fd5b813567ffffffffffffffff81111561191457611914611832565b8060051b61192460208201611848565b9182526020818501810192908101908684111561194057600080fd5b6020860192505b8383101561198757823567ffffffffffffffff81111561196657600080fd5b611975886020838a0101611879565b83525060209283019290910190611947565b9695505050505050565b600080600080608085870312156119a757600080fd5b843567ffffffffffffffff8111156119be57600080fd5b6119ca878288016118e9565b945050602085013567ffffffffffffffff8111156119e757600080fd5b6119f3878288016118e9565b935050604085013567ffffffffffffffff811115611a1057600080fd5b611a1c87828801611879565b925050606085013567ffffffffffffffff811115611a3957600080fd5b611a4587828801611879565b91505092959194509250565b600181811c90821680611a6557607f821691505b602082108103611a8557634e487b7160e01b600052602260045260246000fd5b50919050565b60208082526017908201527f496e76616c696420707265736372697074696f6e204944000000000000000000604082015260600190565b60208082526021908201527f4f6e6c792061646d696e2063616e2063616c6c20746869732066756e6374696f6040820152603760f91b606082015260800190565b600060018201611b2357634e487b7160e01b600052601160045260246000fd5b5060010190565b601f821115611b7457806000526020600020601f840160051c81016020851015611b515750805b601f840160051c820191505b81811015611b715760008155600101611b5d565b50505b505050565b815167ffffffffffffffff811115611b9357611b93611832565b611ba781611ba18454611a51565b84611b2a565b6020601f821160018114611bdb5760008315611bc35750848201515b600019600385901b1c1916600184901b178455611b71565b600084815260208120601f198516915b82811015611c0b5787850151825560209485019460019092019101611beb565b5084821015611c295786840151600019600387901b60f8161c191681555b50505050600190811b0190555056fea26469706673582212200346f45de3c3d531855b094d8ae86f541ca0b76239dc81d566be710b0594dbbb64736f6c634300081c0033",
  "linkReferences": {},
  "deployedLinkReferences": {}
}